{
  "contractName": "QuillToken",
  "abi": [
    {
      "inputs": [
        {
          "internalType": "string",
          "name": "_name",
          "type": "string"
        },
        {
          "internalType": "string",
          "name": "_symbol",
          "type": "string"
        },
        {
          "internalType": "uint8",
          "name": "_decimals",
          "type": "uint8"
        },
        {
          "internalType": "uint256",
          "name": "_totalSupply",
          "type": "uint256"
        }
      ],
      "payable": false,
      "stateMutability": "nonpayable",
      "type": "constructor"
    },
    {
      "anonymous": false,
      "inputs": [
        {
          "indexed": true,
          "internalType": "address",
          "name": "owner",
          "type": "address"
        },
        {
          "indexed": true,
          "internalType": "address",
          "name": "spender",
          "type": "address"
        },
        {
          "indexed": false,
          "internalType": "uint256",
          "name": "value",
          "type": "uint256"
        }
      ],
      "name": "Approval",
      "type": "event"
    },
    {
      "anonymous": false,
      "inputs": [
        {
          "indexed": true,
          "internalType": "address",
          "name": "_of",
          "type": "address"
        },
        {
          "indexed": false,
          "internalType": "uint256",
          "name": "_amount",
          "type": "uint256"
        },
        {
          "indexed": false,
          "internalType": "uint256",
          "name": "_validity",
          "type": "uint256"
        },
        {
          "indexed": false,
          "internalType": "uint256",
          "name": "_months",
          "type": "uint256"
        }
      ],
      "name": "Locked",
      "type": "event"
    },
    {
      "anonymous": false,
      "inputs": [
        {
          "indexed": true,
          "internalType": "address",
          "name": "from",
          "type": "address"
        },
        {
          "indexed": true,
          "internalType": "address",
          "name": "to",
          "type": "address"
        },
        {
          "indexed": false,
          "internalType": "uint256",
          "name": "value",
          "type": "uint256"
        }
      ],
      "name": "Transfer",
      "type": "event"
    },
    {
      "anonymous": false,
      "inputs": [
        {
          "indexed": true,
          "internalType": "address",
          "name": "_of",
          "type": "address"
        },
        {
          "indexed": false,
          "internalType": "uint256",
          "name": "_amount",
          "type": "uint256"
        }
      ],
      "name": "Unlocked",
      "type": "event"
    },
    {
      "constant": true,
      "inputs": [
        {
          "internalType": "address",
          "name": "owner",
          "type": "address"
        },
        {
          "internalType": "address",
          "name": "spender",
          "type": "address"
        }
      ],
      "name": "allowance",
      "outputs": [
        {
          "internalType": "uint256",
          "name": "",
          "type": "uint256"
        }
      ],
      "payable": false,
      "stateMutability": "view",
      "type": "function"
    },
    {
      "constant": false,
      "inputs": [
        {
          "internalType": "address",
          "name": "spender",
          "type": "address"
        },
        {
          "internalType": "uint256",
          "name": "amount",
          "type": "uint256"
        }
      ],
      "name": "approve",
      "outputs": [
        {
          "internalType": "bool",
          "name": "",
          "type": "bool"
        }
      ],
      "payable": false,
      "stateMutability": "nonpayable",
      "type": "function"
    },
    {
      "constant": true,
      "inputs": [
        {
          "internalType": "address",
          "name": "account",
          "type": "address"
        }
      ],
      "name": "balanceOf",
      "outputs": [
        {
          "internalType": "uint256",
          "name": "",
          "type": "uint256"
        }
      ],
      "payable": false,
      "stateMutability": "view",
      "type": "function"
    },
    {
      "constant": true,
      "inputs": [],
      "name": "decimals",
      "outputs": [
        {
          "internalType": "uint8",
          "name": "",
          "type": "uint8"
        }
      ],
      "payable": false,
      "stateMutability": "view",
      "type": "function"
    },
    {
      "constant": false,
      "inputs": [
        {
          "internalType": "address",
          "name": "spender",
          "type": "address"
        },
        {
          "internalType": "uint256",
          "name": "subtractedValue",
          "type": "uint256"
        }
      ],
      "name": "decreaseAllowance",
      "outputs": [
        {
          "internalType": "bool",
          "name": "",
          "type": "bool"
        }
      ],
      "payable": false,
      "stateMutability": "nonpayable",
      "type": "function"
    },
    {
      "constant": false,
      "inputs": [
        {
          "internalType": "address",
          "name": "spender",
          "type": "address"
        },
        {
          "internalType": "uint256",
          "name": "addedValue",
          "type": "uint256"
        }
      ],
      "name": "increaseAllowance",
      "outputs": [
        {
          "internalType": "bool",
          "name": "",
          "type": "bool"
        }
      ],
      "payable": false,
      "stateMutability": "nonpayable",
      "type": "function"
    },
    {
      "constant": true,
      "inputs": [
        {
          "internalType": "address",
          "name": "",
          "type": "address"
        }
      ],
      "name": "locked",
      "outputs": [
        {
          "internalType": "uint256",
          "name": "amount",
          "type": "uint256"
        },
        {
          "internalType": "uint256",
          "name": "validity",
          "type": "uint256"
        },
        {
          "internalType": "bool",
          "name": "claimed",
          "type": "bool"
        },
        {
          "internalType": "uint256",
          "name": "months",
          "type": "uint256"
        }
      ],
      "payable": false,
      "stateMutability": "view",
      "type": "function"
    },
    {
      "constant": true,
      "inputs": [],
      "name": "lockedIndex",
      "outputs": [
        {
          "internalType": "uint256",
          "name": "",
          "type": "uint256"
        }
      ],
      "payable": false,
      "stateMutability": "view",
      "type": "function"
    },
    {
      "constant": true,
      "inputs": [],
      "name": "name",
      "outputs": [
        {
          "internalType": "string",
          "name": "",
          "type": "string"
        }
      ],
      "payable": false,
      "stateMutability": "view",
      "type": "function"
    },
    {
      "constant": true,
      "inputs": [],
      "name": "symbol",
      "outputs": [
        {
          "internalType": "string",
          "name": "",
          "type": "string"
        }
      ],
      "payable": false,
      "stateMutability": "view",
      "type": "function"
    },
    {
      "constant": true,
      "inputs": [],
      "name": "totalSupply",
      "outputs": [
        {
          "internalType": "uint256",
          "name": "",
          "type": "uint256"
        }
      ],
      "payable": false,
      "stateMutability": "view",
      "type": "function"
    },
    {
      "constant": false,
      "inputs": [
        {
          "internalType": "address",
          "name": "recipient",
          "type": "address"
        },
        {
          "internalType": "uint256",
          "name": "amount",
          "type": "uint256"
        }
      ],
      "name": "transfer",
      "outputs": [
        {
          "internalType": "bool",
          "name": "",
          "type": "bool"
        }
      ],
      "payable": false,
      "stateMutability": "nonpayable",
      "type": "function"
    },
    {
      "constant": false,
      "inputs": [
        {
          "internalType": "address",
          "name": "sender",
          "type": "address"
        },
        {
          "internalType": "address",
          "name": "recipient",
          "type": "address"
        },
        {
          "internalType": "uint256",
          "name": "amount",
          "type": "uint256"
        }
      ],
      "name": "transferFrom",
      "outputs": [
        {
          "internalType": "bool",
          "name": "",
          "type": "bool"
        }
      ],
      "payable": false,
      "stateMutability": "nonpayable",
      "type": "function"
    },
    {
      "constant": false,
      "inputs": [
        {
          "internalType": "uint256",
          "name": "_amount",
          "type": "uint256"
        },
        {
          "internalType": "uint256",
          "name": "_months",
          "type": "uint256"
        }
      ],
      "name": "lock",
      "outputs": [
        {
          "internalType": "bool",
          "name": "",
          "type": "bool"
        }
      ],
      "payable": false,
      "stateMutability": "nonpayable",
      "type": "function"
    },
    {
      "constant": true,
      "inputs": [
        {
          "internalType": "address",
          "name": "_of",
          "type": "address"
        }
      ],
      "name": "tokensLocked",
      "outputs": [
        {
          "internalType": "uint256",
          "name": "amount",
          "type": "uint256"
        }
      ],
      "payable": false,
      "stateMutability": "view",
      "type": "function"
    },
    {
      "constant": true,
      "inputs": [
        {
          "internalType": "address",
          "name": "_of",
          "type": "address"
        }
      ],
      "name": "totalBalanceOf",
      "outputs": [
        {
          "internalType": "uint256",
          "name": "amount",
          "type": "uint256"
        }
      ],
      "payable": false,
      "stateMutability": "view",
      "type": "function"
    },
    {
      "constant": false,
      "inputs": [
        {
          "internalType": "uint256",
          "name": "_months",
          "type": "uint256"
        }
      ],
      "name": "extendLock",
      "outputs": [
        {
          "internalType": "bool",
          "name": "",
          "type": "bool"
        }
      ],
      "payable": false,
      "stateMutability": "nonpayable",
      "type": "function"
    },
    {
      "constant": false,
      "inputs": [
        {
          "internalType": "uint256",
          "name": "_amount",
          "type": "uint256"
        }
      ],
      "name": "increaseLockAmount",
      "outputs": [
        {
          "internalType": "bool",
          "name": "",
          "type": "bool"
        }
      ],
      "payable": false,
      "stateMutability": "nonpayable",
      "type": "function"
    },
    {
      "constant": true,
      "inputs": [
        {
          "internalType": "address",
          "name": "_of",
          "type": "address"
        }
      ],
      "name": "tokensUnlockable",
      "outputs": [
        {
          "internalType": "uint256",
          "name": "",
          "type": "uint256"
        }
      ],
      "payable": false,
      "stateMutability": "view",
      "type": "function"
    },
    {
      "constant": false,
      "inputs": [
        {
          "internalType": "address",
          "name": "_of",
          "type": "address"
        }
      ],
      "name": "unlock",
      "outputs": [
        {
          "internalType": "uint256",
          "name": "unlockableTokens",
          "type": "uint256"
        }
      ],
      "payable": false,
      "stateMutability": "nonpayable",
      "type": "function"
    },
    {
      "constant": true,
      "inputs": [
        {
          "internalType": "address",
          "name": "_of",
          "type": "address"
        }
      ],
      "name": "getUnlockableTokens",
      "outputs": [
        {
          "internalType": "uint256",
          "name": "unlockableTokens",
          "type": "uint256"
        }
      ],
      "payable": false,
      "stateMutability": "view",
      "type": "function"
    },
    {
      "constant": true,
      "inputs": [
        {
          "internalType": "address",
          "name": "_user",
          "type": "address"
        }
      ],
      "name": "getStakerReward",
      "outputs": [
        {
          "internalType": "uint256",
          "name": "",
          "type": "uint256"
        }
      ],
      "payable": false,
      "stateMutability": "view",
      "type": "function"
    },
    {
      "constant": true,
      "inputs": [
        {
          "internalType": "address",
          "name": "_user",
          "type": "address"
        }
      ],
      "name": "calculateReward",
      "outputs": [
        {
          "internalType": "uint256",
          "name": "",
          "type": "uint256"
        }
      ],
      "payable": false,
      "stateMutability": "view",
      "type": "function"
    },
    {
      "constant": true,
      "inputs": [
        {
          "internalType": "uint256",
          "name": "x",
          "type": "uint256"
        },
        {
          "internalType": "uint256",
          "name": "y",
          "type": "uint256"
        },
        {
          "internalType": "uint256",
          "name": "z",
          "type": "uint256"
        }
      ],
      "name": "mulDiv",
      "outputs": [
        {
          "internalType": "uint256",
          "name": "",
          "type": "uint256"
        }
      ],
      "payable": false,
      "stateMutability": "pure",
      "type": "function"
    },
    {
      "constant": true,
      "inputs": [
        {
          "internalType": "uint256",
          "name": "x",
          "type": "uint256"
        },
        {
          "internalType": "uint256",
          "name": "y",
          "type": "uint256"
        }
      ],
      "name": "fullMul",
      "outputs": [
        {
          "internalType": "uint256",
          "name": "l",
          "type": "uint256"
        },
        {
          "internalType": "uint256",
          "name": "h",
          "type": "uint256"
        }
      ],
      "payable": false,
      "stateMutability": "pure",
      "type": "function"
    },
    {
      "constant": true,
      "inputs": [
        {
          "internalType": "uint256",
          "name": "l",
          "type": "uint256"
        },
        {
          "internalType": "uint256",
          "name": "h",
          "type": "uint256"
        },
        {
          "internalType": "uint256",
          "name": "z",
          "type": "uint256"
        }
      ],
      "name": "fullDiv",
      "outputs": [
        {
          "internalType": "uint256",
          "name": "r",
          "type": "uint256"
        }
      ],
      "payable": false,
      "stateMutability": "pure",
      "type": "function"
    },
    {
      "constant": true,
      "inputs": [
        {
          "internalType": "uint256",
          "name": "x",
          "type": "uint256"
        }
      ],
      "name": "mostSignificantBit",
      "outputs": [
        {
          "internalType": "uint256",
          "name": "r",
          "type": "uint256"
        }
      ],
      "payable": false,
      "stateMutability": "pure",
      "type": "function"
    }
  ],
  "bytecode": "0x608060405260006007553480156200001657600080fd5b506040516200341338038062003413833981810160405260808110156200003c57600080fd5b81019080805160405193929190846401000000008211156200005d57600080fd5b838201915060208201858111156200007457600080fd5b82518660018202830111640100000000821117156200009257600080fd5b8083526020830192505050908051906020019080838360005b83811015620000c8578082015181840152602081019050620000ab565b50505050905090810190601f168015620000f65780820380516001836020036101000a031916815260200191505b50604052602001805160405193929190846401000000008211156200011a57600080fd5b838201915060208201858111156200013157600080fd5b82518660018202830111640100000000821117156200014f57600080fd5b8083526020830192505050908051906020019080838360005b838110156200018557808201518184015260208101905062000168565b50505050905090810190601f168015620001b35780820380516001836020036101000a031916815260200191505b5060405260200180519060200190929190805190602001909291905050508383838260039080519060200190620001ec92919062000493565b5081600490805190602001906200020592919062000493565b5080600560006101000a81548160ff021916908360ff1602179055505050506200023633826200024060201b60201c565b5050505062000542565b600073ffffffffffffffffffffffffffffffffffffffff168273ffffffffffffffffffffffffffffffffffffffff161415620002e4576040517f08c379a000000000000000000000000000000000000000000000000000000000815260040180806020018281038252601f8152602001807f45524332303a206d696e7420746f20746865207a65726f20616464726573730081525060200191505060405180910390fd5b62000300816002546200040a60201b6200237b1790919060201c565b6002819055506200035e816000808573ffffffffffffffffffffffffffffffffffffffff1673ffffffffffffffffffffffffffffffffffffffff168152602001908152602001600020546200040a60201b6200237b1790919060201c565b6000808473ffffffffffffffffffffffffffffffffffffffff1673ffffffffffffffffffffffffffffffffffffffff168152602001908152602001600020819055508173ffffffffffffffffffffffffffffffffffffffff16600073ffffffffffffffffffffffffffffffffffffffff167fddf252ad1be2c89b69c2b068fc378daa952ba7f163c4a11628f55a4df523b3ef836040518082815260200191505060405180910390a35050565b60008082840190508381101562000489576040517f08c379a000000000000000000000000000000000000000000000000000000000815260040180806020018281038252601b8152602001807f536166654d6174683a206164646974696f6e206f766572666c6f77000000000081525060200191505060405180910390fd5b8091505092915050565b828054600181600116156101000203166002900490600052602060002090601f016020900481019282601f10620004d657805160ff191683800117855562000507565b8280016001018555821562000507579182015b8281111562000506578251825591602001919060010190620004e9565b5b5090506200051691906200051a565b5090565b6200053f91905b808211156200053b57600081600090555060010162000521565b5090565b90565b612ec180620005526000396000f3fe608060405234801561001057600080fd5b50600436106101a95760003560e01c8063403f4447116100f9578063a9059cbb11610097578063cbf9fe5f11610071578063cbf9fe5f14610975578063d82e3962146109e6578063dd62ed3e14610a3e578063e6bcbc6514610ab6576101a9565b8063a9059cbb14610861578063aa9a0912146108c7578063ab4a2eb31461091d576101a9565b806367a4a3dd116100d357806367a4a3dd146106cd57806370a082311461072057806395d89b4114610778578063a457c2d7146107fb576101a9565b8063403f4447146105e957806344ee3a1c1461062f5780634b0ee02a14610675576101a9565b80631ad679f711610166578063313ce56711610140578063313ce567146104eb578063367f3e8b1461050f57806339509351146105655780633db84c2c146105cb576101a9565b80631ad679f7146103b557806323b872dd1461040d5780632f6c493c14610493576101a9565b806301a598a6146101ae57806306fdde031461020657806309279c8414610289578063095ea7b3146102e15780631338736f1461034757806318160ddd14610397575b600080fd5b6101f0600480360360208110156101c457600080fd5b81019080803573ffffffffffffffffffffffffffffffffffffffff169060200190929190505050610af8565b6040518082815260200191505060405180910390f35b61020e610b99565b6040518080602001828103825283818151815260200191508051906020019080838360005b8381101561024e578082015181840152602081019050610233565b50505050905090810190601f16801561027b5780820380516001836020036101000a031916815260200191505b509250505060405180910390f35b6102cb6004803603602081101561029f57600080fd5b81019080803573ffffffffffffffffffffffffffffffffffffffff169060200190929190505050610c3b565b6040518082815260200191505060405180910390f35b61032d600480360360408110156102f757600080fd5b81019080803573ffffffffffffffffffffffffffffffffffffffff16906020019092919080359060200190929190505050610d31565b604051808215151515815260200191505060405180910390f35b61037d6004803603604081101561035d57600080fd5b810190808035906020019092919080359060200190929190505050610d4f565b604051808215151515815260200191505060405180910390f35b61039f611038565b6040518082815260200191505060405180910390f35b6103f7600480360360208110156103cb57600080fd5b81019080803573ffffffffffffffffffffffffffffffffffffffff169060200190929190505050611042565b6040518082815260200191505060405180910390f35b6104796004803603606081101561042357600080fd5b81019080803573ffffffffffffffffffffffffffffffffffffffff169060200190929190803573ffffffffffffffffffffffffffffffffffffffff16906020019092919080359060200190929190505050611054565b604051808215151515815260200191505060405180910390f35b6104d5600480360360208110156104a957600080fd5b81019080803573ffffffffffffffffffffffffffffffffffffffff16906020019092919050505061112d565b6040518082815260200191505060405180910390f35b6104f3611259565b604051808260ff1660ff16815260200191505060405180910390f35b61054f6004803603606081101561052557600080fd5b81019080803590602001909291908035906020019092919080359060200190929190505050611270565b6040518082815260200191505060405180910390f35b6105b16004803603604081101561057b57600080fd5b81019080803573ffffffffffffffffffffffffffffffffffffffff1690602001909291908035906020019092919050505061135b565b604051808215151515815260200191505060405180910390f35b6105d361140e565b6040518082815260200191505060405180910390f35b610615600480360360208110156105ff57600080fd5b8101908080359060200190929190505050611414565b604051808215151515815260200191505060405180910390f35b61065b6004803603602081101561064557600080fd5b8101908080359060200190929190505050611665565b604051808215151515815260200191505060405180910390f35b6106b76004803603602081101561068b57600080fd5b81019080803573ffffffffffffffffffffffffffffffffffffffff1690602001909291905050506119de565b6040518082815260200191505060405180910390f35b610703600480360360408110156106e357600080fd5b810190808035906020019092919080359060200190929190505050611a29565b604051808381526020018281526020019250505060405180910390f35b6107626004803603602081101561073657600080fd5b81019080803573ffffffffffffffffffffffffffffffffffffffff169060200190929190505050611b27565b6040518082815260200191505060405180910390f35b610780611b6f565b6040518080602001828103825283818151815260200191508051906020019080838360005b838110156107c05780820151818401526020810190506107a5565b50505050905090810190601f1680156107ed5780820380516001836020036101000a031916815260200191505b509250505060405180910390f35b6108476004803603604081101561081157600080fd5b81019080803573ffffffffffffffffffffffffffffffffffffffff16906020019092919080359060200190929190505050611c11565b604051808215151515815260200191505060405180910390f35b6108ad6004803603604081101561087757600080fd5b81019080803573ffffffffffffffffffffffffffffffffffffffff16906020019092919080359060200190929190505050611cde565b604051808215151515815260200191505060405180910390f35b610907600480360360608110156108dd57600080fd5b81019080803590602001909291908035906020019092919080359060200190929190505050611cfc565b6040518082815260200191505060405180910390f35b61095f6004803603602081101561093357600080fd5b81019080803573ffffffffffffffffffffffffffffffffffffffff169060200190929190505050611d25565b6040518082815260200191505060405180910390f35b6109b76004803603602081101561098b57600080fd5b81019080803573ffffffffffffffffffffffffffffffffffffffff169060200190929190505050611d65565b604051808581526020018481526020018315151515815260200182815260200194505050505060405180910390f35b610a28600480360360208110156109fc57600080fd5b81019080803573ffffffffffffffffffffffffffffffffffffffff169060200190929190505050611da2565b6040518082815260200191505060405180910390f35b610aa060048036036040811015610a5457600080fd5b81019080803573ffffffffffffffffffffffffffffffffffffffff169060200190929190803573ffffffffffffffffffffffffffffffffffffffff169060200190929190505050612013565b6040518082815260200191505060405180910390f35b610ae260048036036020811015610acc57600080fd5b810190808035906020019092919050505061209a565b6040518082815260200191505060405180910390f35b6000600660008373ffffffffffffffffffffffffffffffffffffffff1673ffffffffffffffffffffffffffffffffffffffff16815260200190815260200160002060020160009054906101000a900460ff16610b9457600660008373ffffffffffffffffffffffffffffffffffffffff1673ffffffffffffffffffffffffffffffffffffffff1681526020019081526020016000206000015490505b919050565b606060038054600181600116156101000203166002900480601f016020809104026020016040519081016040528092919081815260200182805460018160011615610100020316600290048015610c315780601f10610c0657610100808354040283529160200191610c31565b820191906000526020600020905b815481529060010190602001808311610c1457829003601f168201915b5050505050905090565b60008042600660008573ffffffffffffffffffffffffffffffffffffffff1673ffffffffffffffffffffffffffffffffffffffff1681526020019081526020016000206001015411158015610cdd5750600660008473ffffffffffffffffffffffffffffffffffffffff1673ffffffffffffffffffffffffffffffffffffffff16815260200190815260200160002060020160009054906101000a900460ff16155b15610d2857600660008473ffffffffffffffffffffffffffffffffffffffff1673ffffffffffffffffffffffffffffffffffffffff1681526020019081526020016000206000015490505b80915050919050565b6000610d45610d3e61217c565b8484612184565b6001905092915050565b60006001821480610d605750600382145b610db5576040517f08c379a0000000000000000000000000000000000000000000000000000000008152600401808060200182810382526030815260200180612dc46030913960400191505060405180910390fd5b6000806228207290506001841415610ddd57610dda814261237b90919063ffffffff16565b91505b6003841415610e0f57610e0c610dfd60038361240390919063ffffffff16565b4261237b90919063ffffffff16565b91505b6000610e1a33610af8565b14610e8d576040517f08c379a000000000000000000000000000000000000000000000000000000000815260040180806020018281038252600e8152602001807f414c52454144595f4c4f434b454400000000000000000000000000000000000081525060200191505060405180910390fd5b6000851415610f04576040517f08c379a000000000000000000000000000000000000000000000000000000000815260040180806020018281038252600b8152602001807f414d4f554e545f5a45524f00000000000000000000000000000000000000000081525060200191505060405180910390fd5b610f0e3386612489565b604051806080016040528086815260200183815260200160001515815260200185815250600660003373ffffffffffffffffffffffffffffffffffffffff1673ffffffffffffffffffffffffffffffffffffffff168152602001908152602001600020600082015181600001556020820151816001015560408201518160020160006101000a81548160ff02191690831515021790555060608201518160030155905050610fc8600160075461237b90919063ffffffff16565b6007819055503373ffffffffffffffffffffffffffffffffffffffff167f44cebfefa4561bee5b61d675ccfd8dc9969fff9cc15e7a4eccccd62af94f9c1186848760405180848152602001838152602001828152602001935050505060405180910390a260019250505092915050565b6000600254905090565b600061104d82611da2565b9050919050565b6000611061848484612641565b6111228461106d61217c565b61111d85604051806060016040528060288152602001612d7b60289139600160008b73ffffffffffffffffffffffffffffffffffffffff1673ffffffffffffffffffffffffffffffffffffffff16815260200190815260200160002060006110d361217c565b73ffffffffffffffffffffffffffffffffffffffff1673ffffffffffffffffffffffffffffffffffffffff168152602001908152602001600020546128f79092919063ffffffff16565b612184565b600190509392505050565b600080600080600090505b60075481101561123d5761114b85610c3b565b925061115685611da2565b9150600083111561123257611186611177838561237b90919063ffffffff16565b8561237b90919063ffffffff16565b93506001600660008773ffffffffffffffffffffffffffffffffffffffff1673ffffffffffffffffffffffffffffffffffffffff16815260200190815260200160002060020160006101000a81548160ff0219169083151502179055508473ffffffffffffffffffffffffffffffffffffffff167f0f0bc5b519ddefdd8e5f9e6423433aa2b869738de2ae34d58ebc796fc749fa0d856040518082815260200191505060405180910390a25b600181019050611138565b5060008311156112525761125184846129b7565b5b5050919050565b6000600560009054906101000a900460ff16905090565b600081831061127e57600080fd5b60006112898361209a565b90506000839050607f82116112a157600091506112b4565b607f8203915060018260018303901c0190505b5b600085111561134457600060016112cb8761209a565b019050600081610100039050600083838a901c838a901b01816112ea57fe5b049050848311156113025784830381901b905061130b565b82850381901c90505b808601955060008061131d838a611a29565b91509150808a0399508a8211156113355760018a0399505b818b039a5050505050506112b5565b83868161134d57fe5b048301925050509392505050565b600061140461136861217c565b846113ff856001600061137961217c565b73ffffffffffffffffffffffffffffffffffffffff1673ffffffffffffffffffffffffffffffffffffffff16815260200190815260200160002060008973ffffffffffffffffffffffffffffffffffffffff1673ffffffffffffffffffffffffffffffffffffffff1681526020019081526020016000205461237b90919063ffffffff16565b612184565b6001905092915050565b60075481565b60008061142033610af8565b11611493576040517f08c379a000000000000000000000000000000000000000000000000000000000815260040180806020018281038252600a8152602001807f4e6f74204c6f636b65640000000000000000000000000000000000000000000081525060200191505060405180910390fd5b61149d3383612489565b6114f282600660003373ffffffffffffffffffffffffffffffffffffffff1673ffffffffffffffffffffffffffffffffffffffff1681526020019081526020016000206000015461237b90919063ffffffff16565b600660003373ffffffffffffffffffffffffffffffffffffffff1673ffffffffffffffffffffffffffffffffffffffff168152602001908152602001600020600001819055503373ffffffffffffffffffffffffffffffffffffffff167f44cebfefa4561bee5b61d675ccfd8dc9969fff9cc15e7a4eccccd62af94f9c11600660003373ffffffffffffffffffffffffffffffffffffffff1673ffffffffffffffffffffffffffffffffffffffff16815260200190815260200160002060000154600660003373ffffffffffffffffffffffffffffffffffffffff1673ffffffffffffffffffffffffffffffffffffffff16815260200190815260200160002060010154600660003373ffffffffffffffffffffffffffffffffffffffff1673ffffffffffffffffffffffffffffffffffffffff1681526020019081526020016000206003015460405180848152602001838152602001828152602001935050505060405180910390a260019050919050565b600060018214806116765750600382145b6116cb576040517f08c379a000000000000000000000000000000000000000000000000000000000815260040180806020018281038252602b815260200180612e3d602b913960400191505060405180910390fd5b60006116d633610af8565b11611749576040517f08c379a000000000000000000000000000000000000000000000000000000000815260040180806020018281038252600a8152602001807f4e6f74204c6f636b65640000000000000000000000000000000000000000000081525060200191505060405180910390fd5b600062282072905060018314156117f6576117af81600660003373ffffffffffffffffffffffffffffffffffffffff1673ffffffffffffffffffffffffffffffffffffffff1681526020019081526020016000206001015461237b90919063ffffffff16565b600660003373ffffffffffffffffffffffffffffffffffffffff1673ffffffffffffffffffffffffffffffffffffffff168152602001908152602001600020600101819055505b60038314156118ae5761186761181660038361240390919063ffffffff16565b600660003373ffffffffffffffffffffffffffffffffffffffff1673ffffffffffffffffffffffffffffffffffffffff1681526020019081526020016000206001015461237b90919063ffffffff16565b600660003373ffffffffffffffffffffffffffffffffffffffff1673ffffffffffffffffffffffffffffffffffffffff168152602001908152602001600020600101819055505b3373ffffffffffffffffffffffffffffffffffffffff167f44cebfefa4561bee5b61d675ccfd8dc9969fff9cc15e7a4eccccd62af94f9c11600660003373ffffffffffffffffffffffffffffffffffffffff1673ffffffffffffffffffffffffffffffffffffffff16815260200190815260200160002060000154600660003373ffffffffffffffffffffffffffffffffffffffff1673ffffffffffffffffffffffffffffffffffffffff1681526020019081526020016000206001015486600660003373ffffffffffffffffffffffffffffffffffffffff1673ffffffffffffffffffffffffffffffffffffffff168152602001908152602001600020600301540160405180848152602001838152602001828152602001935050505060405180910390a26001915050919050565b60006119e982611b27565b905060008090505b600754811015611a2357611a16611a0784610af8565b8361237b90919063ffffffff16565b91506001810190506119f1565b50919050565b6000806000846fffffffffffffffffffffffffffffffff1690506000608086901c90506000856fffffffffffffffffffffffffffffffff1690506000608087901c9050600082850290506000828602905060008486029050600084870290506000846fffffffffffffffffffffffffffffffff1690506000836fffffffffffffffffffffffffffffffff16856fffffffffffffffffffffffffffffffff16608088901c010190506000608085901c608087901c856fffffffffffffffffffffffffffffffff16010190506000608085901c9050608083901b84019d50608081901b82608085901c01019c505050505050505050505050509250929050565b60008060008373ffffffffffffffffffffffffffffffffffffffff1673ffffffffffffffffffffffffffffffffffffffff168152602001908152602001600020549050919050565b606060048054600181600116156101000203166002900480601f016020809104026020016040519081016040528092919081815260200182805460018160011615610100020316600290048015611c075780601f10611bdc57610100808354040283529160200191611c07565b820191906000526020600020905b815481529060010190602001808311611bea57829003601f168201915b5050505050905090565b6000611cd4611c1e61217c565b84611ccf85604051806060016040528060258152602001612e686025913960016000611c4861217c565b73ffffffffffffffffffffffffffffffffffffffff1673ffffffffffffffffffffffffffffffffffffffff16815260200190815260200160002060008a73ffffffffffffffffffffffffffffffffffffffff1673ffffffffffffffffffffffffffffffffffffffff168152602001908152602001600020546128f79092919063ffffffff16565b612184565b6001905092915050565b6000611cf2611ceb61217c565b8484612641565b6001905092915050565b6000806000611d0b8686611a29565b91509150611d1a828286611270565b925050509392505050565b600080600090505b600754811015611d5f57611d52611d4384610c3b565b8361237b90919063ffffffff16565b9150600181019050611d2d565b50919050565b60066020528060005260406000206000915090508060000154908060010154908060020160009054906101000a900460ff16908060030154905084565b6000600660008373ffffffffffffffffffffffffffffffffffffffff1673ffffffffffffffffffffffffffffffffffffffff16815260200190815260200160002060020160009054906101000a900460ff1615611e67576040517f08c379a00000000000000000000000000000000000000000000000000000000081526004018080602001828103825260158152602001807f495420697320616c726561647920636c61696d6564000000000000000000000081525060200191505060405180910390fd5b6000600660008473ffffffffffffffffffffffffffffffffffffffff1673ffffffffffffffffffffffffffffffffffffffff1681526020019081526020016000206003015490506000600660008573ffffffffffffffffffffffffffffffffffffffff1673ffffffffffffffffffffffffffffffffffffffff1681526020019081526020016000206000015490506a01a784379d99db420000008110611f8b576001821415611f45576000611f1f8260106064611cfc565b90506000611f37600c83612b7290919063ffffffff16565b90508094505050505061200e565b6003821415611f86576000611f5d8260146064611cfc565b90506000611f75600c83612b7290919063ffffffff16565b90506003810294505050505061200e565b61200b565b6001821415611fc9576000611fa382600c6064611cfc565b90506000611fbb600c83612b7290919063ffffffff16565b90508094505050505061200e565b600382141561200a576000611fe18260146064611cfc565b90506000611ff9600c83612b7290919063ffffffff16565b90506003810294505050505061200e565b5b50505b919050565b6000600160008473ffffffffffffffffffffffffffffffffffffffff1673ffffffffffffffffffffffffffffffffffffffff16815260200190815260200160002060008373ffffffffffffffffffffffffffffffffffffffff1673ffffffffffffffffffffffffffffffffffffffff16815260200190815260200160002054905092915050565b60008082116120a857600080fd5b70010000000000000000000000000000000082106120ce57608082901c91506080810190505b6801000000000000000082106120ec57604082901c91506040810190505b640100000000821061210657602082901c91506020810190505b62010000821061211e57601082901c91506010810190505b610100821061213557600882901c91506008810190505b6010821061214b57600482901c91506004810190505b6004821061216157600282901c91506002810190505b6002821061217757600182901c91506001810190505b919050565b600033905090565b600073ffffffffffffffffffffffffffffffffffffffff168373ffffffffffffffffffffffffffffffffffffffff16141561220a576040517f08c379a0000000000000000000000000000000000000000000000000000000008152600401808060200182810382526024815260200180612e196024913960400191505060405180910390fd5b600073ffffffffffffffffffffffffffffffffffffffff168273ffffffffffffffffffffffffffffffffffffffff161415612290576040517f08c379a0000000000000000000000000000000000000000000000000000000008152600401808060200182810382526022815260200180612d126022913960400191505060405180910390fd5b80600160008573ffffffffffffffffffffffffffffffffffffffff1673ffffffffffffffffffffffffffffffffffffffff16815260200190815260200160002060008473ffffffffffffffffffffffffffffffffffffffff1673ffffffffffffffffffffffffffffffffffffffff168152602001908152602001600020819055508173ffffffffffffffffffffffffffffffffffffffff168373ffffffffffffffffffffffffffffffffffffffff167f8c5be1e5ebec7d5bd14f71427d1e84f3dd0314c0f7b2291e5b200ac8c7c3b925836040518082815260200191505060405180910390a3505050565b6000808284019050838110156123f9576040517f08c379a000000000000000000000000000000000000000000000000000000000815260040180806020018281038252601b8152602001807f536166654d6174683a206164646974696f6e206f766572666c6f77000000000081525060200191505060405180910390fd5b8091505092915050565b6000808314156124165760009050612483565b600082840290508284828161242757fe5b041461247e576040517f08c379a0000000000000000000000000000000000000000000000000000000008152600401808060200182810382526021815260200180612d5a6021913960400191505060405180910390fd5b809150505b92915050565b600073ffffffffffffffffffffffffffffffffffffffff168273ffffffffffffffffffffffffffffffffffffffff16141561250f576040517f08c379a0000000000000000000000000000000000000000000000000000000008152600401808060200182810382526021815260200180612da36021913960400191505060405180910390fd5b61257a81604051806060016040528060228152602001612cf0602291396000808673ffffffffffffffffffffffffffffffffffffffff1673ffffffffffffffffffffffffffffffffffffffff168152602001908152602001600020546128f79092919063ffffffff16565b6000808473ffffffffffffffffffffffffffffffffffffffff1673ffffffffffffffffffffffffffffffffffffffff168152602001908152602001600020819055506125d181600254612bbc90919063ffffffff16565b600281905550600073ffffffffffffffffffffffffffffffffffffffff168273ffffffffffffffffffffffffffffffffffffffff167fddf252ad1be2c89b69c2b068fc378daa952ba7f163c4a11628f55a4df523b3ef836040518082815260200191505060405180910390a35050565b600073ffffffffffffffffffffffffffffffffffffffff168373ffffffffffffffffffffffffffffffffffffffff1614156126c7576040517f08c379a0000000000000000000000000000000000000000000000000000000008152600401808060200182810382526025815260200180612df46025913960400191505060405180910390fd5b600073ffffffffffffffffffffffffffffffffffffffff168273ffffffffffffffffffffffffffffffffffffffff16141561274d576040517f08c379a0000000000000000000000000000000000000000000000000000000008152600401808060200182810382526023815260200180612ccd6023913960400191505060405180910390fd5b6127b881604051806060016040528060268152602001612d34602691396000808773ffffffffffffffffffffffffffffffffffffffff1673ffffffffffffffffffffffffffffffffffffffff168152602001908152602001600020546128f79092919063ffffffff16565b6000808573ffffffffffffffffffffffffffffffffffffffff1673ffffffffffffffffffffffffffffffffffffffff1681526020019081526020016000208190555061284b816000808573ffffffffffffffffffffffffffffffffffffffff1673ffffffffffffffffffffffffffffffffffffffff1681526020019081526020016000205461237b90919063ffffffff16565b6000808473ffffffffffffffffffffffffffffffffffffffff1673ffffffffffffffffffffffffffffffffffffffff168152602001908152602001600020819055508173ffffffffffffffffffffffffffffffffffffffff168373ffffffffffffffffffffffffffffffffffffffff167fddf252ad1be2c89b69c2b068fc378daa952ba7f163c4a11628f55a4df523b3ef836040518082815260200191505060405180910390a3505050565b60008383111582906129a4576040517f08c379a00000000000000000000000000000000000000000000000000000000081526004018080602001828103825283818151815260200191508051906020019080838360005b8381101561296957808201518184015260208101905061294e565b50505050905090810190601f1680156129965780820380516001836020036101000a031916815260200191505b509250505060405180910390fd5b5060008385039050809150509392505050565b600073ffffffffffffffffffffffffffffffffffffffff168273ffffffffffffffffffffffffffffffffffffffff161415612a5a576040517f08c379a000000000000000000000000000000000000000000000000000000000815260040180806020018281038252601f8152602001807f45524332303a206d696e7420746f20746865207a65726f20616464726573730081525060200191505060405180910390fd5b612a6f8160025461237b90919063ffffffff16565b600281905550612ac6816000808573ffffffffffffffffffffffffffffffffffffffff1673ffffffffffffffffffffffffffffffffffffffff1681526020019081526020016000205461237b90919063ffffffff16565b6000808473ffffffffffffffffffffffffffffffffffffffff1673ffffffffffffffffffffffffffffffffffffffff168152602001908152602001600020819055508173ffffffffffffffffffffffffffffffffffffffff16600073ffffffffffffffffffffffffffffffffffffffff167fddf252ad1be2c89b69c2b068fc378daa952ba7f163c4a11628f55a4df523b3ef836040518082815260200191505060405180910390a35050565b6000612bb483836040518060400160405280601a81526020017f536166654d6174683a206469766973696f6e206279207a65726f000000000000815250612c06565b905092915050565b6000612bfe83836040518060400160405280601e81526020017f536166654d6174683a207375627472616374696f6e206f766572666c6f7700008152506128f7565b905092915050565b60008083118290612cb2576040517f08c379a00000000000000000000000000000000000000000000000000000000081526004018080602001828103825283818151815260200191508051906020019080838360005b83811015612c77578082015181840152602081019050612c5c565b50505050905090810190601f168015612ca45780820380516001836020036101000a031916815260200191505b509250505060405180910390fd5b506000838581612cbe57fe5b04905080915050939250505056fe45524332303a207472616e7366657220746f20746865207a65726f206164647265737345524332303a206275726e20616d6f756e7420657863656564732062616c616e636545524332303a20617070726f766520746f20746865207a65726f206164647265737345524332303a207472616e7366657220616d6f756e7420657863656564732062616c616e6365536166654d6174683a206d756c7469706c69636174696f6e206f766572666c6f7745524332303a207472616e7366657220616d6f756e74206578636565647320616c6c6f77616e636545524332303a206275726e2066726f6d20746865207a65726f20616464726573734c6f636b20706572696f732073686f756c64206265206569746865722031206d6f6e7468206f722033206d6f6e74687345524332303a207472616e736665722066726f6d20746865207a65726f206164647265737345524332303a20617070726f76652066726f6d20746865207a65726f206164647265737354686520657874656e64656420506572696f642073686f756c642062652031206f722033206d6f6e74687345524332303a2064656372656173656420616c6c6f77616e63652062656c6f77207a65726fa265627a7a7231582028a58923a4a4b082bbc177c4bd4f0cee7394b15a43fec47d4bb5211ed39ee3cd64736f6c63430005100032",
  "source": "pragma solidity ^0.5.0;\n\nimport  \"@openzeppelin/contracts/token/ERC20/ERC20Detailed.sol\";\nimport  \"@openzeppelin/contracts/token/ERC20/ERC20.sol\";\nimport \"@openzeppelin/contracts/math/SafeMath.sol\";\nimport \"./ERC1132Modified.sol\";\n\ncontract QuillToken is ERC20, ERC20Detailed,ERC1132Modified\n{\n\n\tusing SafeMath for uint256;\n\n\tuint public lockedIndex = 0;\n\n\tconstructor(string memory _name,string memory _symbol,uint8 _decimals,uint _totalSupply)\n\tERC20Detailed(_name,_symbol,_decimals)\n\tpublic\n\t{\n\t\t_mint(msg.sender,_totalSupply);\n\t}\n\n\tfunction lock(uint256 _amount,uint256 _months)\n\tpublic returns(bool)\n\t{\n\t\trequire(_months == 1 || _months == 3,'Lock perios should be either 1 month or 3 months');\n\t\tuint validUntil;\n\t\tuint  monthInSeconds = 2629746;\n\t\tif(_months == 1){\n\t\t\tvalidUntil = now.add(monthInSeconds);\n\t\t}\n\t\tif(_months == 3){\n\t\t\tvalidUntil = now.add(monthInSeconds.mul(3));\n\t\t}\n\n\t\trequire(tokensLocked(msg.sender)==0,'ALREADY_LOCKED');\n\t\trequire(_amount !=0 ,'AMOUNT_ZERO');\n\n\t\t_burn(msg.sender,_amount);\n\n\t\tlocked[msg.sender] = lockToken(_amount,validUntil,false,_months);\n\t\tlockedIndex = lockedIndex.add(1);\n\n\t\temit Locked(msg.sender,_amount,validUntil,_months);\n\n\t\treturn true;\n\t}\n\n\tfunction tokensLocked(address _of)\n\tpublic view returns (uint256 amount)\n\t{\n\t\tif(!locked[_of].claimed)\n\t\t{\n\t\t\tamount = locked[_of].amount;\n\t\t}\n\t}\n\n\n\tfunction totalBalanceOf(address _of)\n    public view returns (uint256 amount)\n    {\n    \tamount = balanceOf(_of);\n\n    \tfor(uint256 i=0;i<lockedIndex;i+=1)\n    \t{\n    \t\tamount = amount.add(tokensLocked(_of));\n    \t}\n    }\n\n    function extendLock(uint256 _months)\n    public returns (bool)\n    {\n    \trequire(_months == 1 || _months == 3,'The extended Period should be 1 or 3 months');\n    \trequire(tokensLocked(msg.sender) > 0,'Not Locked');\n    \tuint  monthInSeconds = 2629746;\n    \tif(_months == 1){\n    \t\tlocked[msg.sender].validity = locked[msg.sender].validity.add(monthInSeconds);\n    \t}\n    \tif(_months == 3){\n    \t\tlocked[msg.sender].validity = locked[msg.sender].validity.add(monthInSeconds.mul(3));\n    \t}\n    \temit Locked(msg.sender,locked[msg.sender].amount,locked[msg.sender].validity,locked[msg.sender].months+_months);\n\n    \treturn true;\n    }\n\n    function increaseLockAmount(uint256 _amount)\n    public returns (bool)\n    {\n    \trequire(tokensLocked(msg.sender) > 0,'Not Locked');\n\n    \t_burn(msg.sender,_amount);\n\n    \tlocked[msg.sender].amount = locked[msg.sender].amount.add(_amount);\n\n    \temit Locked(msg.sender,locked[msg.sender].amount,locked[msg.sender].validity,locked[msg.sender].months);\n\n    \treturn true;\n    }\n\n    function tokensUnlockable(address _of)\n    public view returns (uint256)\n    {\n    \tuint amount;\n    \tif(locked[_of].validity <= now && !locked[_of].claimed)\n    \t{\n    \t\tamount = locked[_of].amount;\n    \t}\n    \treturn amount;\n    }\n\n    function unlock(address _of)\n    public returns (uint256 unlockableTokens)\n    {\n    \tuint lockedTokens;\n    \tuint rewardTokens;\n    \t//Here we calculate the reward that the user gets by locking these tokens and adds it to \n    \t// unlockable tokens and new tokens minted for this address will be unlockableTokens + reward\n\n    \tfor(uint i=0;i<lockedIndex;i+=1)\n    \t{\n    \t\tlockedTokens = tokensUnlockable(_of);\n    \t\trewardTokens = calculateReward(_of);\n    \t\tif(lockedTokens > 0)\n    \t\t{\n    \t\t\tunlockableTokens = unlockableTokens.add(lockedTokens.add(rewardTokens));\n    \t\t\tlocked[_of].claimed = true;\n    \t\t\temit Unlocked(_of,unlockableTokens);\n    \t\t}\n    \t}\n\n    \tif(unlockableTokens > 0)\n    \t{\n    \t\t_mint(_of,unlockableTokens);\n    \t}\n    }\n\n    function getUnlockableTokens(address _of)\n    public view returns (uint256 unlockableTokens)\n    {\t\n    \tfor(uint i=0;i<lockedIndex;i+=1)\n    \t{\n    \t\tunlockableTokens = unlockableTokens.add(tokensUnlockable(_of));\n    \t}\n    }\n\n    function getStakerReward(address _user)public view returns(uint)\n    {\n    \treturn calculateReward(_user);\n    }\n\n    function calculateReward(address _user)public view returns(uint)\n    {\n    \trequire(!locked[_user].claimed,'IT is already claimed');\n    \tuint months = locked[_user].months;\n    \tuint amount = locked[_user].amount;\n    \t// One month in seconds = 2629746 approx (30.5 days)\n    \tif(amount >= 2000000 * 10 ** 18)\n    \t{\n    \t\tif(months == 1)\n    \t\t{\n    \t\t\tuint yearReward = mulDiv(amount,16,100);\n    \t\t\tuint monthReward = yearReward.div(12);\n\n    \t\t\treturn monthReward;\n    \t\t}\n    \t\tif(months == 3)\n    \t\t{\n    \t\t\tuint yearReward = mulDiv(amount,20,100);\n    \t\t\tuint monthReward = yearReward.div(12);\n\n    \t\t\treturn monthReward * 3;\t\n    \t\t}\n    \t}else\n    \t{\n    \t\tif(months == 1)\n    \t\t{\n    \t\t\tuint yearReward = mulDiv(amount,12,100);\n    \t\t\tuint monthReward = yearReward.div(12);\n\n    \t\t\treturn monthReward;\n    \t\t}\n    \t\tif(months == 3)\n    \t\t{\n    \t\t\tuint yearReward = mulDiv(amount,20,100);\n    \t\t\tuint monthReward = yearReward.div(12);\n\n    \t\t\treturn monthReward * 3;\t\n    \t\t}\n    \t}\n    }\n\n\n    //@ dev calculates x * y/z  say (y % of x) where y = percentage x = amount z = 100\n\n    function mulDiv (uint x, uint y, uint z)\n    public pure returns (uint)\n    {\n        (uint l, uint h) = fullMul (x, y);\n        return fullDiv (l, h, z);\n    }\n    // @ dev helper function for mulDiv\n    function fullMul (uint x, uint y)\n    public pure returns (uint l, uint h)\n    {\n        uint xl = uint128 (x); uint xh = x >> 128;\n        uint yl = uint128 (y); uint yh = y >> 128;\n        uint xlyl = xl * yl; uint xlyh = xl * yh;\n        uint xhyl = xh * yl; uint xhyh = xh * yh;\n\n        uint ll = uint128 (xlyl);\n        uint lh = (xlyl >> 128) + uint128 (xlyh) + uint128 (xhyl);\n        uint hl = uint128 (xhyh) + (xlyh >> 128) + (xhyl >> 128);\n        uint hh = (xhyh >> 128);\n        l = ll + (lh << 128);\n        h = (lh >> 128) + hl + (hh << 128);\n    }\n    // @ dev helper function for mulDiv\n    function fullDiv (uint l, uint h, uint z)\n    public pure returns (uint r) {\n        require (h < z);\n        uint zShift = mostSignificantBit (z);\n        uint shiftedZ = z;\n        if (zShift <= 127) zShift = 0;\n        else\n        {\n            zShift -= 127;\n            shiftedZ = (shiftedZ - 1 >> zShift) + 1;\n        }\n        while (h > 0)\n        {\n            uint lShift = mostSignificantBit (h) + 1;\n            uint hShift = 256 - lShift;\n            uint e = ((h << hShift) + (l >> lShift)) / shiftedZ;\n            if (lShift > zShift) e <<= (lShift - zShift);\n            else e >>= (zShift - lShift);\n            r += e;\n            (uint tl, uint th) = fullMul (e, z);\n            h -= th;\n            if (tl > l) h -= 1;\n            l -= tl;\n        }\n        r += l / z;\n    }\n    // @dev helper function for fullDiv \n    function mostSignificantBit (uint x) public pure returns (uint r) {\n        require (x > 0);\n        if (x >= 2**128) { x >>= 128; r += 128; }\n        if (x >= 2**64) { x >>= 64; r += 64; }\n        if (x >= 2**32) { x >>= 32; r += 32; }\n        if (x >= 2**16) { x >>= 16; r += 16; }\n        if (x >= 2**8) { x >>= 8; r += 8; }\n        if (x >= 2**4) { x >>= 4; r += 4; }\n        if (x >= 2**2) { x >>= 2; r += 2; }\n        if (x >= 2**1) { x >>= 1; r += 1; }\n    }\n\n\t\n}",
  "sourcePath": "/home/cryptokowsik/QuillTokenSale/contracts/QuillToken.sol",
  "compiler": {
    "name": "solc",
    "version": "0.5.16+commit.9c3226ce.Emscripten.clang"
  },
  "schemaVersion": "3.2.0",
  "updatedAt": "2020-09-20T08:44:43.093Z",
  "networkType": "ethereum",
  "devdoc": {
    "methods": {
      "allowance(address,address)": {
        "details": "See {IERC20-allowance}."
      },
      "approve(address,uint256)": {
        "details": "See {IERC20-approve}.     * Requirements:     * - `spender` cannot be the zero address."
      },
      "balanceOf(address)": {
        "details": "See {IERC20-balanceOf}."
      },
      "decimals()": {
        "details": "Returns the number of decimals used to get its user representation. For example, if `decimals` equals `2`, a balance of `505` tokens should be displayed to a user as `5,05` (`505 / 10 ** 2`).     * Tokens usually opt for a value of 18, imitating the relationship between Ether and Wei.     * NOTE: This information is only used for _display_ purposes: it in no way affects any of the arithmetic of the contract, including {IERC20-balanceOf} and {IERC20-transfer}."
      },
      "decreaseAllowance(address,uint256)": {
        "details": "Atomically decreases the allowance granted to `spender` by the caller.     * This is an alternative to {approve} that can be used as a mitigation for problems described in {IERC20-approve}.     * Emits an {Approval} event indicating the updated allowance.     * Requirements:     * - `spender` cannot be the zero address. - `spender` must have allowance for the caller of at least `subtractedValue`."
      },
      "increaseAllowance(address,uint256)": {
        "details": "Atomically increases the allowance granted to `spender` by the caller.     * This is an alternative to {approve} that can be used as a mitigation for problems described in {IERC20-approve}.     * Emits an {Approval} event indicating the updated allowance.     * Requirements:     * - `spender` cannot be the zero address."
      },
      "name()": {
        "details": "Returns the name of the token."
      },
      "symbol()": {
        "details": "Returns the symbol of the token, usually a shorter version of the name."
      },
      "totalSupply()": {
        "details": "See {IERC20-totalSupply}."
      },
      "transfer(address,uint256)": {
        "details": "See {IERC20-transfer}.     * Requirements:     * - `recipient` cannot be the zero address. - the caller must have a balance of at least `amount`."
      },
      "transferFrom(address,address,uint256)": {
        "details": "See {IERC20-transferFrom}.     * Emits an {Approval} event indicating the updated allowance. This is not required by the EIP. See the note at the beginning of {ERC20};     * Requirements: - `sender` and `recipient` cannot be the zero address. - `sender` must have a balance of at least `amount`. - the caller must have allowance for `sender`'s tokens of at least `amount`."
      }
    }
  },
  "userdoc": {
    "methods": {}
  }
}