{
  "contractName": "QuillToken",
  "abi": [
    {
      "inputs": [
        {
          "internalType": "string",
          "name": "_name",
          "type": "string"
        },
        {
          "internalType": "string",
          "name": "_symbol",
          "type": "string"
        },
        {
          "internalType": "uint8",
          "name": "_decimals",
          "type": "uint8"
        },
        {
          "internalType": "uint256",
          "name": "_totalSupply",
          "type": "uint256"
        }
      ],
      "payable": false,
      "stateMutability": "nonpayable",
      "type": "constructor"
    },
    {
      "anonymous": false,
      "inputs": [
        {
          "indexed": true,
          "internalType": "address",
          "name": "owner",
          "type": "address"
        },
        {
          "indexed": true,
          "internalType": "address",
          "name": "spender",
          "type": "address"
        },
        {
          "indexed": false,
          "internalType": "uint256",
          "name": "value",
          "type": "uint256"
        }
      ],
      "name": "Approval",
      "type": "event"
    },
    {
      "anonymous": false,
      "inputs": [
        {
          "indexed": true,
          "internalType": "address",
          "name": "_of",
          "type": "address"
        },
        {
          "indexed": false,
          "internalType": "uint256",
          "name": "_amount",
          "type": "uint256"
        },
        {
          "indexed": false,
          "internalType": "uint256",
          "name": "_validity",
          "type": "uint256"
        }
      ],
      "name": "Locked",
      "type": "event"
    },
    {
      "anonymous": false,
      "inputs": [
        {
          "indexed": true,
          "internalType": "address",
          "name": "from",
          "type": "address"
        },
        {
          "indexed": true,
          "internalType": "address",
          "name": "to",
          "type": "address"
        },
        {
          "indexed": false,
          "internalType": "uint256",
          "name": "value",
          "type": "uint256"
        }
      ],
      "name": "Transfer",
      "type": "event"
    },
    {
      "anonymous": false,
      "inputs": [
        {
          "indexed": true,
          "internalType": "address",
          "name": "_of",
          "type": "address"
        },
        {
          "indexed": false,
          "internalType": "uint256",
          "name": "_amount",
          "type": "uint256"
        }
      ],
      "name": "Unlocked",
      "type": "event"
    },
    {
      "constant": true,
      "inputs": [
        {
          "internalType": "address",
          "name": "owner",
          "type": "address"
        },
        {
          "internalType": "address",
          "name": "spender",
          "type": "address"
        }
      ],
      "name": "allowance",
      "outputs": [
        {
          "internalType": "uint256",
          "name": "",
          "type": "uint256"
        }
      ],
      "payable": false,
      "stateMutability": "view",
      "type": "function"
    },
    {
      "constant": false,
      "inputs": [
        {
          "internalType": "address",
          "name": "spender",
          "type": "address"
        },
        {
          "internalType": "uint256",
          "name": "amount",
          "type": "uint256"
        }
      ],
      "name": "approve",
      "outputs": [
        {
          "internalType": "bool",
          "name": "",
          "type": "bool"
        }
      ],
      "payable": false,
      "stateMutability": "nonpayable",
      "type": "function"
    },
    {
      "constant": true,
      "inputs": [
        {
          "internalType": "address",
          "name": "account",
          "type": "address"
        }
      ],
      "name": "balanceOf",
      "outputs": [
        {
          "internalType": "uint256",
          "name": "",
          "type": "uint256"
        }
      ],
      "payable": false,
      "stateMutability": "view",
      "type": "function"
    },
    {
      "constant": true,
      "inputs": [],
      "name": "decimals",
      "outputs": [
        {
          "internalType": "uint8",
          "name": "",
          "type": "uint8"
        }
      ],
      "payable": false,
      "stateMutability": "view",
      "type": "function"
    },
    {
      "constant": false,
      "inputs": [
        {
          "internalType": "address",
          "name": "spender",
          "type": "address"
        },
        {
          "internalType": "uint256",
          "name": "subtractedValue",
          "type": "uint256"
        }
      ],
      "name": "decreaseAllowance",
      "outputs": [
        {
          "internalType": "bool",
          "name": "",
          "type": "bool"
        }
      ],
      "payable": false,
      "stateMutability": "nonpayable",
      "type": "function"
    },
    {
      "constant": false,
      "inputs": [
        {
          "internalType": "address",
          "name": "spender",
          "type": "address"
        },
        {
          "internalType": "uint256",
          "name": "addedValue",
          "type": "uint256"
        }
      ],
      "name": "increaseAllowance",
      "outputs": [
        {
          "internalType": "bool",
          "name": "",
          "type": "bool"
        }
      ],
      "payable": false,
      "stateMutability": "nonpayable",
      "type": "function"
    },
    {
      "constant": true,
      "inputs": [
        {
          "internalType": "address",
          "name": "",
          "type": "address"
        }
      ],
      "name": "locked",
      "outputs": [
        {
          "internalType": "uint256",
          "name": "amount",
          "type": "uint256"
        },
        {
          "internalType": "uint256",
          "name": "validity",
          "type": "uint256"
        },
        {
          "internalType": "bool",
          "name": "claimed",
          "type": "bool"
        }
      ],
      "payable": false,
      "stateMutability": "view",
      "type": "function"
    },
    {
      "constant": true,
      "inputs": [],
      "name": "lockedIndex",
      "outputs": [
        {
          "internalType": "uint256",
          "name": "",
          "type": "uint256"
        }
      ],
      "payable": false,
      "stateMutability": "view",
      "type": "function"
    },
    {
      "constant": true,
      "inputs": [],
      "name": "name",
      "outputs": [
        {
          "internalType": "string",
          "name": "",
          "type": "string"
        }
      ],
      "payable": false,
      "stateMutability": "view",
      "type": "function"
    },
    {
      "constant": true,
      "inputs": [],
      "name": "symbol",
      "outputs": [
        {
          "internalType": "string",
          "name": "",
          "type": "string"
        }
      ],
      "payable": false,
      "stateMutability": "view",
      "type": "function"
    },
    {
      "constant": true,
      "inputs": [],
      "name": "totalSupply",
      "outputs": [
        {
          "internalType": "uint256",
          "name": "",
          "type": "uint256"
        }
      ],
      "payable": false,
      "stateMutability": "view",
      "type": "function"
    },
    {
      "constant": false,
      "inputs": [
        {
          "internalType": "address",
          "name": "recipient",
          "type": "address"
        },
        {
          "internalType": "uint256",
          "name": "amount",
          "type": "uint256"
        }
      ],
      "name": "transfer",
      "outputs": [
        {
          "internalType": "bool",
          "name": "",
          "type": "bool"
        }
      ],
      "payable": false,
      "stateMutability": "nonpayable",
      "type": "function"
    },
    {
      "constant": false,
      "inputs": [
        {
          "internalType": "address",
          "name": "sender",
          "type": "address"
        },
        {
          "internalType": "address",
          "name": "recipient",
          "type": "address"
        },
        {
          "internalType": "uint256",
          "name": "amount",
          "type": "uint256"
        }
      ],
      "name": "transferFrom",
      "outputs": [
        {
          "internalType": "bool",
          "name": "",
          "type": "bool"
        }
      ],
      "payable": false,
      "stateMutability": "nonpayable",
      "type": "function"
    },
    {
      "constant": false,
      "inputs": [
        {
          "internalType": "uint256",
          "name": "_amount",
          "type": "uint256"
        },
        {
          "internalType": "uint256",
          "name": "_time",
          "type": "uint256"
        }
      ],
      "name": "lock",
      "outputs": [
        {
          "internalType": "bool",
          "name": "",
          "type": "bool"
        }
      ],
      "payable": false,
      "stateMutability": "nonpayable",
      "type": "function"
    },
    {
      "constant": true,
      "inputs": [
        {
          "internalType": "address",
          "name": "_of",
          "type": "address"
        }
      ],
      "name": "tokensLocked",
      "outputs": [
        {
          "internalType": "uint256",
          "name": "amount",
          "type": "uint256"
        }
      ],
      "payable": false,
      "stateMutability": "view",
      "type": "function"
    },
    {
      "constant": true,
      "inputs": [
        {
          "internalType": "address",
          "name": "_of",
          "type": "address"
        }
      ],
      "name": "totalBalanceOf",
      "outputs": [
        {
          "internalType": "uint256",
          "name": "amount",
          "type": "uint256"
        }
      ],
      "payable": false,
      "stateMutability": "view",
      "type": "function"
    },
    {
      "constant": false,
      "inputs": [
        {
          "internalType": "uint256",
          "name": "_time",
          "type": "uint256"
        }
      ],
      "name": "extendLock",
      "outputs": [
        {
          "internalType": "bool",
          "name": "",
          "type": "bool"
        }
      ],
      "payable": false,
      "stateMutability": "nonpayable",
      "type": "function"
    },
    {
      "constant": false,
      "inputs": [
        {
          "internalType": "uint256",
          "name": "_amount",
          "type": "uint256"
        }
      ],
      "name": "increaseLockAmount",
      "outputs": [
        {
          "internalType": "bool",
          "name": "",
          "type": "bool"
        }
      ],
      "payable": false,
      "stateMutability": "nonpayable",
      "type": "function"
    },
    {
      "constant": true,
      "inputs": [
        {
          "internalType": "address",
          "name": "_of",
          "type": "address"
        }
      ],
      "name": "tokensUnlockable",
      "outputs": [
        {
          "internalType": "uint256",
          "name": "",
          "type": "uint256"
        }
      ],
      "payable": false,
      "stateMutability": "view",
      "type": "function"
    },
    {
      "constant": false,
      "inputs": [
        {
          "internalType": "address",
          "name": "_of",
          "type": "address"
        }
      ],
      "name": "unlock",
      "outputs": [
        {
          "internalType": "uint256",
          "name": "unlockableTokens",
          "type": "uint256"
        }
      ],
      "payable": false,
      "stateMutability": "nonpayable",
      "type": "function"
    },
    {
      "constant": true,
      "inputs": [
        {
          "internalType": "address",
          "name": "_of",
          "type": "address"
        }
      ],
      "name": "getUnlockableTokens",
      "outputs": [
        {
          "internalType": "uint256",
          "name": "unlockableTokens",
          "type": "uint256"
        }
      ],
      "payable": false,
      "stateMutability": "view",
      "type": "function"
    },
    {
      "constant": true,
      "inputs": [
        {
          "internalType": "address",
          "name": "_user",
          "type": "address"
        }
      ],
      "name": "calculateReward",
      "outputs": [
        {
          "internalType": "uint256",
          "name": "",
          "type": "uint256"
        }
      ],
      "payable": false,
      "stateMutability": "view",
      "type": "function"
    },
    {
      "constant": true,
      "inputs": [
        {
          "internalType": "uint256",
          "name": "x",
          "type": "uint256"
        },
        {
          "internalType": "uint256",
          "name": "y",
          "type": "uint256"
        },
        {
          "internalType": "uint256",
          "name": "z",
          "type": "uint256"
        }
      ],
      "name": "mulDiv",
      "outputs": [
        {
          "internalType": "uint256",
          "name": "",
          "type": "uint256"
        }
      ],
      "payable": false,
      "stateMutability": "pure",
      "type": "function"
    },
    {
      "constant": true,
      "inputs": [
        {
          "internalType": "uint256",
          "name": "x",
          "type": "uint256"
        },
        {
          "internalType": "uint256",
          "name": "y",
          "type": "uint256"
        }
      ],
      "name": "fullMul",
      "outputs": [
        {
          "internalType": "uint256",
          "name": "l",
          "type": "uint256"
        },
        {
          "internalType": "uint256",
          "name": "h",
          "type": "uint256"
        }
      ],
      "payable": false,
      "stateMutability": "pure",
      "type": "function"
    },
    {
      "constant": true,
      "inputs": [
        {
          "internalType": "uint256",
          "name": "l",
          "type": "uint256"
        },
        {
          "internalType": "uint256",
          "name": "h",
          "type": "uint256"
        },
        {
          "internalType": "uint256",
          "name": "z",
          "type": "uint256"
        }
      ],
      "name": "fullDiv",
      "outputs": [
        {
          "internalType": "uint256",
          "name": "r",
          "type": "uint256"
        }
      ],
      "payable": false,
      "stateMutability": "pure",
      "type": "function"
    },
    {
      "constant": true,
      "inputs": [
        {
          "internalType": "uint256",
          "name": "x",
          "type": "uint256"
        }
      ],
      "name": "mostSignificantBit",
      "outputs": [
        {
          "internalType": "uint256",
          "name": "r",
          "type": "uint256"
        }
      ],
      "payable": false,
      "stateMutability": "pure",
      "type": "function"
    }
  ],
  "bytecode": "0x608060405260006007553480156200001657600080fd5b506040516200300038038062003000833981810160405260808110156200003c57600080fd5b81019080805160405193929190846401000000008211156200005d57600080fd5b838201915060208201858111156200007457600080fd5b82518660018202830111640100000000821117156200009257600080fd5b8083526020830192505050908051906020019080838360005b83811015620000c8578082015181840152602081019050620000ab565b50505050905090810190601f168015620000f65780820380516001836020036101000a031916815260200191505b50604052602001805160405193929190846401000000008211156200011a57600080fd5b838201915060208201858111156200013157600080fd5b82518660018202830111640100000000821117156200014f57600080fd5b8083526020830192505050908051906020019080838360005b838110156200018557808201518184015260208101905062000168565b50505050905090810190601f168015620001b35780820380516001836020036101000a031916815260200191505b5060405260200180519060200190929190805190602001909291905050508383838260039080519060200190620001ec92919062000493565b5081600490805190602001906200020592919062000493565b5080600560006101000a81548160ff021916908360ff1602179055505050506200023633826200024060201b60201c565b5050505062000542565b600073ffffffffffffffffffffffffffffffffffffffff168273ffffffffffffffffffffffffffffffffffffffff161415620002e4576040517f08c379a000000000000000000000000000000000000000000000000000000000815260040180806020018281038252601f8152602001807f45524332303a206d696e7420746f20746865207a65726f20616464726573730081525060200191505060405180910390fd5b62000300816002546200040a60201b6200206a1790919060201c565b6002819055506200035e816000808573ffffffffffffffffffffffffffffffffffffffff1673ffffffffffffffffffffffffffffffffffffffff168152602001908152602001600020546200040a60201b6200206a1790919060201c565b6000808473ffffffffffffffffffffffffffffffffffffffff1673ffffffffffffffffffffffffffffffffffffffff168152602001908152602001600020819055508173ffffffffffffffffffffffffffffffffffffffff16600073ffffffffffffffffffffffffffffffffffffffff167fddf252ad1be2c89b69c2b068fc378daa952ba7f163c4a11628f55a4df523b3ef836040518082815260200191505060405180910390a35050565b60008082840190508381101562000489576040517f08c379a000000000000000000000000000000000000000000000000000000000815260040180806020018281038252601b8152602001807f536166654d6174683a206164646974696f6e206f766572666c6f77000000000081525060200191505060405180910390fd5b8091505092915050565b828054600181600116156101000203166002900490600052602060002090601f016020900481019282601f10620004d657805160ff191683800117855562000507565b8280016001018555821562000507579182015b8281111562000506578251825591602001919060010190620004e9565b5b5090506200051691906200051a565b5090565b6200053f91905b808211156200053b57600081600090555060010162000521565b5090565b90565b612aae80620005526000396000f3fe608060405234801561001057600080fd5b506004361061018e5760003560e01c806344ee3a1c116100de578063a9059cbb11610097578063cbf9fe5f11610071578063cbf9fe5f14610902578063d82e39621461096c578063dd62ed3e146109c4578063e6bcbc6514610a3c5761018e565b8063a9059cbb146107ee578063aa9a091214610854578063ab4a2eb3146108aa5761018e565b806344ee3a1c146105bc5780634b0ee02a1461060257806367a4a3dd1461065a57806370a08231146106ad57806395d89b4114610705578063a457c2d7146107885761018e565b806323b872dd1161014b578063367f3e8b11610125578063367f3e8b1461049c57806339509351146104f25780633db84c2c14610558578063403f4447146105765761018e565b806323b872dd1461039a5780632f6c493c14610420578063313ce567146104785761018e565b806301a598a61461019357806306fdde03146101eb57806309279c841461026e578063095ea7b3146102c65780631338736f1461032c57806318160ddd1461037c575b600080fd5b6101d5600480360360208110156101a957600080fd5b81019080803573ffffffffffffffffffffffffffffffffffffffff169060200190929190505050610a7e565b6040518082815260200191505060405180910390f35b6101f3610b1f565b6040518080602001828103825283818151815260200191508051906020019080838360005b83811015610233578082015181840152602081019050610218565b50505050905090810190601f1680156102605780820380516001836020036101000a031916815260200191505b509250505060405180910390f35b6102b06004803603602081101561028457600080fd5b81019080803573ffffffffffffffffffffffffffffffffffffffff169060200190929190505050610bc1565b6040518082815260200191505060405180910390f35b610312600480360360408110156102dc57600080fd5b81019080803573ffffffffffffffffffffffffffffffffffffffff16906020019092919080359060200190929190505050610cb7565b604051808215151515815260200191505060405180910390f35b6103626004803603604081101561034257600080fd5b810190808035906020019092919080359060200190929190505050610cd5565b604051808215151515815260200191505060405180910390f35b610384610efd565b6040518082815260200191505060405180910390f35b610406600480360360608110156103b057600080fd5b81019080803573ffffffffffffffffffffffffffffffffffffffff169060200190929190803573ffffffffffffffffffffffffffffffffffffffff16906020019092919080359060200190929190505050610f07565b604051808215151515815260200191505060405180910390f35b6104626004803603602081101561043657600080fd5b81019080803573ffffffffffffffffffffffffffffffffffffffff169060200190929190505050610fe0565b6040518082815260200191505060405180910390f35b61048061110c565b604051808260ff1660ff16815260200191505060405180910390f35b6104dc600480360360608110156104b257600080fd5b81019080803590602001909291908035906020019092919080359060200190929190505050611123565b6040518082815260200191505060405180910390f35b61053e6004803603604081101561050857600080fd5b81019080803573ffffffffffffffffffffffffffffffffffffffff1690602001909291908035906020019092919050505061120e565b604051808215151515815260200191505060405180910390f35b6105606112c1565b6040518082815260200191505060405180910390f35b6105a26004803603602081101561058c57600080fd5b81019080803590602001909291905050506112c7565b604051808215151515815260200191505060405180910390f35b6105e8600480360360208110156105d257600080fd5b81019080803590602001909291905050506114ce565b604051808215151515815260200191505060405180910390f35b6106446004803603602081101561061857600080fd5b81019080803573ffffffffffffffffffffffffffffffffffffffff1690602001909291905050506116cb565b6040518082815260200191505060405180910390f35b6106906004803603604081101561067057600080fd5b810190808035906020019092919080359060200190929190505050611716565b604051808381526020018281526020019250505060405180910390f35b6106ef600480360360208110156106c357600080fd5b81019080803573ffffffffffffffffffffffffffffffffffffffff169060200190929190505050611814565b6040518082815260200191505060405180910390f35b61070d61185c565b6040518080602001828103825283818151815260200191508051906020019080838360005b8381101561074d578082015181840152602081019050610732565b50505050905090810190601f16801561077a5780820380516001836020036101000a031916815260200191505b509250505060405180910390f35b6107d46004803603604081101561079e57600080fd5b81019080803573ffffffffffffffffffffffffffffffffffffffff169060200190929190803590602001909291905050506118fe565b604051808215151515815260200191505060405180910390f35b61083a6004803603604081101561080457600080fd5b81019080803573ffffffffffffffffffffffffffffffffffffffff169060200190929190803590602001909291905050506119cb565b604051808215151515815260200191505060405180910390f35b6108946004803603606081101561086a57600080fd5b810190808035906020019092919080359060200190929190803590602001909291905050506119e9565b6040518082815260200191505060405180910390f35b6108ec600480360360208110156108c057600080fd5b81019080803573ffffffffffffffffffffffffffffffffffffffff169060200190929190505050611a12565b6040518082815260200191505060405180910390f35b6109446004803603602081101561091857600080fd5b81019080803573ffffffffffffffffffffffffffffffffffffffff169060200190929190505050611a52565b6040518084815260200183815260200182151515158152602001935050505060405180910390f35b6109ae6004803603602081101561098257600080fd5b81019080803573ffffffffffffffffffffffffffffffffffffffff169060200190929190505050611a89565b6040518082815260200191505060405180910390f35b610a26600480360360408110156109da57600080fd5b81019080803573ffffffffffffffffffffffffffffffffffffffff169060200190929190803573ffffffffffffffffffffffffffffffffffffffff169060200190929190505050611d02565b6040518082815260200191505060405180910390f35b610a6860048036036020811015610a5257600080fd5b8101908080359060200190929190505050611d89565b6040518082815260200191505060405180910390f35b6000600660008373ffffffffffffffffffffffffffffffffffffffff1673ffffffffffffffffffffffffffffffffffffffff16815260200190815260200160002060020160009054906101000a900460ff16610b1a57600660008373ffffffffffffffffffffffffffffffffffffffff1673ffffffffffffffffffffffffffffffffffffffff1681526020019081526020016000206000015490505b919050565b606060038054600181600116156101000203166002900480601f016020809104026020016040519081016040528092919081815260200182805460018160011615610100020316600290048015610bb75780601f10610b8c57610100808354040283529160200191610bb7565b820191906000526020600020905b815481529060010190602001808311610b9a57829003601f168201915b5050505050905090565b60008042600660008573ffffffffffffffffffffffffffffffffffffffff1673ffffffffffffffffffffffffffffffffffffffff1681526020019081526020016000206001015411158015610c635750600660008473ffffffffffffffffffffffffffffffffffffffff1673ffffffffffffffffffffffffffffffffffffffff16815260200190815260200160002060020160009054906101000a900460ff16155b15610cae57600660008473ffffffffffffffffffffffffffffffffffffffff1673ffffffffffffffffffffffffffffffffffffffff1681526020019081526020016000206000015490505b80915050919050565b6000610ccb610cc4611e6b565b8484611e73565b6001905092915050565b600080610ceb834261206a90919063ffffffff16565b90506000610cf833610a7e565b14610d6b576040517f08c379a000000000000000000000000000000000000000000000000000000000815260040180806020018281038252600e8152602001807f414c52454144595f4c4f434b454400000000000000000000000000000000000081525060200191505060405180910390fd5b6000841415610de2576040517f08c379a000000000000000000000000000000000000000000000000000000000815260040180806020018281038252600b8152602001807f414d4f554e545f5a45524f00000000000000000000000000000000000000000081525060200191505060405180910390fd5b610dec33856120f2565b604051806060016040528085815260200182815260200160001515815250600660003373ffffffffffffffffffffffffffffffffffffffff1673ffffffffffffffffffffffffffffffffffffffff168152602001908152602001600020600082015181600001556020820151816001015560408201518160020160006101000a81548160ff021916908315150217905550905050610e96600160075461206a90919063ffffffff16565b6007819055503373ffffffffffffffffffffffffffffffffffffffff167fd4665e3049283582ba6f9eba07a5b3e12dab49e02da99e8927a47af5d134bea58583604051808381526020018281526020019250505060405180910390a2600191505092915050565b6000600254905090565b6000610f148484846122aa565b610fd584610f20611e6b565b610fd0856040518060600160405280602881526020016129c360289139600160008b73ffffffffffffffffffffffffffffffffffffffff1673ffffffffffffffffffffffffffffffffffffffff1681526020019081526020016000206000610f86611e6b565b73ffffffffffffffffffffffffffffffffffffffff1673ffffffffffffffffffffffffffffffffffffffff168152602001908152602001600020546125609092919063ffffffff16565b611e73565b600190509392505050565b600080600080600090505b6007548110156110f057610ffe85610bc1565b925061100985611a89565b915060008311156110e55761103961102a838561206a90919063ffffffff16565b8561206a90919063ffffffff16565b93506001600660008773ffffffffffffffffffffffffffffffffffffffff1673ffffffffffffffffffffffffffffffffffffffff16815260200190815260200160002060020160006101000a81548160ff0219169083151502179055508473ffffffffffffffffffffffffffffffffffffffff167f0f0bc5b519ddefdd8e5f9e6423433aa2b869738de2ae34d58ebc796fc749fa0d856040518082815260200191505060405180910390a25b600181019050610feb565b506000831115611105576111048484612620565b5b5050919050565b6000600560009054906101000a900460ff16905090565b600081831061113157600080fd5b600061113c83611d89565b90506000839050607f82116111545760009150611167565b607f8203915060018260018303901c0190505b5b60008511156111f7576000600161117e87611d89565b019050600081610100039050600083838a901c838a901b018161119d57fe5b049050848311156111b55784830381901b90506111be565b82850381901c90505b80860195506000806111d0838a611716565b91509150808a0399508a8211156111e85760018a0399505b818b039a505050505050611168565b83868161120057fe5b048301925050509392505050565b60006112b761121b611e6b565b846112b2856001600061122c611e6b565b73ffffffffffffffffffffffffffffffffffffffff1673ffffffffffffffffffffffffffffffffffffffff16815260200190815260200160002060008973ffffffffffffffffffffffffffffffffffffffff1673ffffffffffffffffffffffffffffffffffffffff1681526020019081526020016000205461206a90919063ffffffff16565b611e73565b6001905092915050565b60075481565b6000806112d333610a7e565b11611346576040517f08c379a000000000000000000000000000000000000000000000000000000000815260040180806020018281038252600a8152602001807f4e6f74204c6f636b65640000000000000000000000000000000000000000000081525060200191505060405180910390fd5b61135033836120f2565b6113a582600660003373ffffffffffffffffffffffffffffffffffffffff1673ffffffffffffffffffffffffffffffffffffffff1681526020019081526020016000206000015461206a90919063ffffffff16565b600660003373ffffffffffffffffffffffffffffffffffffffff1673ffffffffffffffffffffffffffffffffffffffff168152602001908152602001600020600001819055503373ffffffffffffffffffffffffffffffffffffffff167fd4665e3049283582ba6f9eba07a5b3e12dab49e02da99e8927a47af5d134bea5600660003373ffffffffffffffffffffffffffffffffffffffff1673ffffffffffffffffffffffffffffffffffffffff16815260200190815260200160002060000154600660003373ffffffffffffffffffffffffffffffffffffffff1673ffffffffffffffffffffffffffffffffffffffff16815260200190815260200160002060010154604051808381526020018281526020019250505060405180910390a260019050919050565b6000806114da33610a7e565b1161154d576040517f08c379a000000000000000000000000000000000000000000000000000000000815260040180806020018281038252600a8152602001807f4e6f74204c6f636b65640000000000000000000000000000000000000000000081525060200191505060405180910390fd5b6115a282600660003373ffffffffffffffffffffffffffffffffffffffff1673ffffffffffffffffffffffffffffffffffffffff1681526020019081526020016000206001015461206a90919063ffffffff16565b600660003373ffffffffffffffffffffffffffffffffffffffff1673ffffffffffffffffffffffffffffffffffffffff168152602001908152602001600020600101819055503373ffffffffffffffffffffffffffffffffffffffff167fd4665e3049283582ba6f9eba07a5b3e12dab49e02da99e8927a47af5d134bea5600660003373ffffffffffffffffffffffffffffffffffffffff1673ffffffffffffffffffffffffffffffffffffffff16815260200190815260200160002060000154600660003373ffffffffffffffffffffffffffffffffffffffff1673ffffffffffffffffffffffffffffffffffffffff16815260200190815260200160002060010154604051808381526020018281526020019250505060405180910390a260019050919050565b60006116d682611814565b905060008090505b600754811015611710576117036116f484610a7e565b8361206a90919063ffffffff16565b91506001810190506116de565b50919050565b6000806000846fffffffffffffffffffffffffffffffff1690506000608086901c90506000856fffffffffffffffffffffffffffffffff1690506000608087901c9050600082850290506000828602905060008486029050600084870290506000846fffffffffffffffffffffffffffffffff1690506000836fffffffffffffffffffffffffffffffff16856fffffffffffffffffffffffffffffffff16608088901c010190506000608085901c608087901c856fffffffffffffffffffffffffffffffff16010190506000608085901c9050608083901b84019d50608081901b82608085901c01019c505050505050505050505050509250929050565b60008060008373ffffffffffffffffffffffffffffffffffffffff1673ffffffffffffffffffffffffffffffffffffffff168152602001908152602001600020549050919050565b606060048054600181600116156101000203166002900480601f0160208091040260200160405190810160405280929190818152602001828054600181600116156101000203166002900480156118f45780601f106118c9576101008083540402835291602001916118f4565b820191906000526020600020905b8154815290600101906020018083116118d757829003601f168201915b5050505050905090565b60006119c161190b611e6b565b846119bc85604051806060016040528060258152602001612a556025913960016000611935611e6b565b73ffffffffffffffffffffffffffffffffffffffff1673ffffffffffffffffffffffffffffffffffffffff16815260200190815260200160002060008a73ffffffffffffffffffffffffffffffffffffffff1673ffffffffffffffffffffffffffffffffffffffff168152602001908152602001600020546125609092919063ffffffff16565b611e73565b6001905092915050565b60006119df6119d8611e6b565b84846122aa565b6001905092915050565b60008060006119f88686611716565b91509150611a07828286611123565b925050509392505050565b600080600090505b600754811015611a4c57611a3f611a3084610bc1565b8361206a90919063ffffffff16565b9150600181019050611a1a565b50919050565b60066020528060005260406000206000915090508060000154908060010154908060020160009054906101000a900460ff16905083565b6000600660008373ffffffffffffffffffffffffffffffffffffffff1673ffffffffffffffffffffffffffffffffffffffff16815260200190815260200160002060020160009054906101000a900460ff1615611b4e576040517f08c379a00000000000000000000000000000000000000000000000000000000081526004018080602001828103825260158152602001807f495420697320616c726561647920636c61696d6564000000000000000000000081525060200191505060405180910390fd5b6000600660008473ffffffffffffffffffffffffffffffffffffffff1673ffffffffffffffffffffffffffffffffffffffff1681526020019081526020016000206001015490506000600660008573ffffffffffffffffffffffffffffffffffffffff1673ffffffffffffffffffffffffffffffffffffffff1681526020019081526020016000206000015490506a01a784379d99db420000008110611c765762282072821415611c2e576000611c0882601060646119e9565b90506000611c20600c836127db90919063ffffffff16565b905080945050505050611cfd565b62786156821415611c71576000611c4882601460646119e9565b90506000611c60600c836127db90919063ffffffff16565b905060038102945050505050611cfd565b611cfa565b62282072821415611cb6576000611c9082600c60646119e9565b90506000611ca8600c836127db90919063ffffffff16565b905080945050505050611cfd565b62786156821415611cf9576000611cd082601460646119e9565b90506000611ce8600c836127db90919063ffffffff16565b905060038102945050505050611cfd565b5b50505b919050565b6000600160008473ffffffffffffffffffffffffffffffffffffffff1673ffffffffffffffffffffffffffffffffffffffff16815260200190815260200160002060008373ffffffffffffffffffffffffffffffffffffffff1673ffffffffffffffffffffffffffffffffffffffff16815260200190815260200160002054905092915050565b6000808211611d9757600080fd5b7001000000000000000000000000000000008210611dbd57608082901c91506080810190505b680100000000000000008210611ddb57604082901c91506040810190505b6401000000008210611df557602082901c91506020810190505b620100008210611e0d57601082901c91506010810190505b6101008210611e2457600882901c91506008810190505b60108210611e3a57600482901c91506004810190505b60048210611e5057600282901c91506002810190505b60028210611e6657600182901c91506001810190505b919050565b600033905090565b600073ffffffffffffffffffffffffffffffffffffffff168373ffffffffffffffffffffffffffffffffffffffff161415611ef9576040517f08c379a0000000000000000000000000000000000000000000000000000000008152600401808060200182810382526024815260200180612a316024913960400191505060405180910390fd5b600073ffffffffffffffffffffffffffffffffffffffff168273ffffffffffffffffffffffffffffffffffffffff161415611f7f576040517f08c379a000000000000000000000000000000000000000000000000000000000815260040180806020018281038252602281526020018061297b6022913960400191505060405180910390fd5b80600160008573ffffffffffffffffffffffffffffffffffffffff1673ffffffffffffffffffffffffffffffffffffffff16815260200190815260200160002060008473ffffffffffffffffffffffffffffffffffffffff1673ffffffffffffffffffffffffffffffffffffffff168152602001908152602001600020819055508173ffffffffffffffffffffffffffffffffffffffff168373ffffffffffffffffffffffffffffffffffffffff167f8c5be1e5ebec7d5bd14f71427d1e84f3dd0314c0f7b2291e5b200ac8c7c3b925836040518082815260200191505060405180910390a3505050565b6000808284019050838110156120e8576040517f08c379a000000000000000000000000000000000000000000000000000000000815260040180806020018281038252601b8152602001807f536166654d6174683a206164646974696f6e206f766572666c6f77000000000081525060200191505060405180910390fd5b8091505092915050565b600073ffffffffffffffffffffffffffffffffffffffff168273ffffffffffffffffffffffffffffffffffffffff161415612178576040517f08c379a00000000000000000000000000000000000000000000000000000000081526004018080602001828103825260218152602001806129eb6021913960400191505060405180910390fd5b6121e381604051806060016040528060228152602001612959602291396000808673ffffffffffffffffffffffffffffffffffffffff1673ffffffffffffffffffffffffffffffffffffffff168152602001908152602001600020546125609092919063ffffffff16565b6000808473ffffffffffffffffffffffffffffffffffffffff1673ffffffffffffffffffffffffffffffffffffffff1681526020019081526020016000208190555061223a8160025461282590919063ffffffff16565b600281905550600073ffffffffffffffffffffffffffffffffffffffff168273ffffffffffffffffffffffffffffffffffffffff167fddf252ad1be2c89b69c2b068fc378daa952ba7f163c4a11628f55a4df523b3ef836040518082815260200191505060405180910390a35050565b600073ffffffffffffffffffffffffffffffffffffffff168373ffffffffffffffffffffffffffffffffffffffff161415612330576040517f08c379a0000000000000000000000000000000000000000000000000000000008152600401808060200182810382526025815260200180612a0c6025913960400191505060405180910390fd5b600073ffffffffffffffffffffffffffffffffffffffff168273ffffffffffffffffffffffffffffffffffffffff1614156123b6576040517f08c379a00000000000000000000000000000000000000000000000000000000081526004018080602001828103825260238152602001806129366023913960400191505060405180910390fd5b6124218160405180606001604052806026815260200161299d602691396000808773ffffffffffffffffffffffffffffffffffffffff1673ffffffffffffffffffffffffffffffffffffffff168152602001908152602001600020546125609092919063ffffffff16565b6000808573ffffffffffffffffffffffffffffffffffffffff1673ffffffffffffffffffffffffffffffffffffffff168152602001908152602001600020819055506124b4816000808573ffffffffffffffffffffffffffffffffffffffff1673ffffffffffffffffffffffffffffffffffffffff1681526020019081526020016000205461206a90919063ffffffff16565b6000808473ffffffffffffffffffffffffffffffffffffffff1673ffffffffffffffffffffffffffffffffffffffff168152602001908152602001600020819055508173ffffffffffffffffffffffffffffffffffffffff168373ffffffffffffffffffffffffffffffffffffffff167fddf252ad1be2c89b69c2b068fc378daa952ba7f163c4a11628f55a4df523b3ef836040518082815260200191505060405180910390a3505050565b600083831115829061260d576040517f08c379a00000000000000000000000000000000000000000000000000000000081526004018080602001828103825283818151815260200191508051906020019080838360005b838110156125d25780820151818401526020810190506125b7565b50505050905090810190601f1680156125ff5780820380516001836020036101000a031916815260200191505b509250505060405180910390fd5b5060008385039050809150509392505050565b600073ffffffffffffffffffffffffffffffffffffffff168273ffffffffffffffffffffffffffffffffffffffff1614156126c3576040517f08c379a000000000000000000000000000000000000000000000000000000000815260040180806020018281038252601f8152602001807f45524332303a206d696e7420746f20746865207a65726f20616464726573730081525060200191505060405180910390fd5b6126d88160025461206a90919063ffffffff16565b60028190555061272f816000808573ffffffffffffffffffffffffffffffffffffffff1673ffffffffffffffffffffffffffffffffffffffff1681526020019081526020016000205461206a90919063ffffffff16565b6000808473ffffffffffffffffffffffffffffffffffffffff1673ffffffffffffffffffffffffffffffffffffffff168152602001908152602001600020819055508173ffffffffffffffffffffffffffffffffffffffff16600073ffffffffffffffffffffffffffffffffffffffff167fddf252ad1be2c89b69c2b068fc378daa952ba7f163c4a11628f55a4df523b3ef836040518082815260200191505060405180910390a35050565b600061281d83836040518060400160405280601a81526020017f536166654d6174683a206469766973696f6e206279207a65726f00000000000081525061286f565b905092915050565b600061286783836040518060400160405280601e81526020017f536166654d6174683a207375627472616374696f6e206f766572666c6f770000815250612560565b905092915050565b6000808311829061291b576040517f08c379a00000000000000000000000000000000000000000000000000000000081526004018080602001828103825283818151815260200191508051906020019080838360005b838110156128e05780820151818401526020810190506128c5565b50505050905090810190601f16801561290d5780820380516001836020036101000a031916815260200191505b509250505060405180910390fd5b50600083858161292757fe5b04905080915050939250505056fe45524332303a207472616e7366657220746f20746865207a65726f206164647265737345524332303a206275726e20616d6f756e7420657863656564732062616c616e636545524332303a20617070726f766520746f20746865207a65726f206164647265737345524332303a207472616e7366657220616d6f756e7420657863656564732062616c616e636545524332303a207472616e7366657220616d6f756e74206578636565647320616c6c6f77616e636545524332303a206275726e2066726f6d20746865207a65726f206164647265737345524332303a207472616e736665722066726f6d20746865207a65726f206164647265737345524332303a20617070726f76652066726f6d20746865207a65726f206164647265737345524332303a2064656372656173656420616c6c6f77616e63652062656c6f77207a65726fa265627a7a7231582066fc7faaf5c04b6229590acf30c343d1d1dd29eddb3c7566b6ed521864750a2064736f6c63430005100032",
  "source": "pragma solidity ^0.5.0;\n\nimport  \"@openzeppelin/contracts/token/ERC20/ERC20Detailed.sol\";\nimport  \"@openzeppelin/contracts/token/ERC20/ERC20.sol\";\nimport \"@openzeppelin/contracts/math/SafeMath.sol\";\nimport \"./ERC1132Modified.sol\";\n\ncontract QuillToken is ERC20, ERC20Detailed,ERC1132Modified\n{\n\n\tusing SafeMath for uint256;\n\n\tuint public lockedIndex = 0;\n\n\tconstructor(string memory _name,string memory _symbol,uint8 _decimals,uint _totalSupply)\n\tERC20Detailed(_name,_symbol,_decimals)\n\tpublic\n\t{\n\t\t_mint(msg.sender,_totalSupply);\n\t}\n\n\tfunction lock(uint256 _amount,uint256 _time)\n\tpublic returns(bool)\n\t{\n\t\tuint256 validUntil = now.add(_time);\n\n\t\trequire(tokensLocked(msg.sender)==0,'ALREADY_LOCKED');\n\t\trequire(_amount !=0 ,'AMOUNT_ZERO');\n\n\t\t_burn(msg.sender,_amount);\n\n\t\tlocked[msg.sender] = lockToken(_amount,validUntil,false);\n\t\tlockedIndex = lockedIndex.add(1);\n\n\t\temit Locked(msg.sender,_amount,validUntil);\n\n\t\treturn true;\n\t}\n\n\tfunction tokensLocked(address _of)\n\tpublic view returns (uint256 amount)\n\t{\n\t\tif(!locked[_of].claimed)\n\t\t{\n\t\t\tamount = locked[_of].amount;\n\t\t}\n\t}\n\n\n\tfunction totalBalanceOf(address _of)\n    public view returns (uint256 amount)\n    {\n    \tamount = balanceOf(_of);\n\n    \tfor(uint256 i=0;i<lockedIndex;i+=1)\n    \t{\n    \t\tamount = amount.add(tokensLocked(_of));\n    \t}\n    }\n\n    function extendLock(uint256 _time)\n    public returns (bool)\n    {\n    \trequire(tokensLocked(msg.sender) > 0,'Not Locked');\n    \tlocked[msg.sender].validity = locked[msg.sender].validity.add(_time);\n\n    \temit Locked(msg.sender,locked[msg.sender].amount,locked[msg.sender].validity);\n\n    \treturn true;\n    }\n\n    function increaseLockAmount(uint256 _amount)\n    public returns (bool)\n    {\n    \trequire(tokensLocked(msg.sender) > 0,'Not Locked');\n\n    \t_burn(msg.sender,_amount);\n\n    \tlocked[msg.sender].amount = locked[msg.sender].amount.add(_amount);\n\n    \temit Locked(msg.sender,locked[msg.sender].amount,locked[msg.sender].validity);\n\n    \treturn true;\n    }\n\n    function tokensUnlockable(address _of)\n    public view returns (uint256)\n    {\n    \tuint amount;\n    \tif(locked[_of].validity <= now && !locked[_of].claimed)\n    \t{\n    \t\tamount = locked[_of].amount;\n    \t}\n    \treturn amount;\n    }\n\n    function unlock(address _of)\n    public returns (uint256 unlockableTokens)\n    {\n    \tuint lockedTokens;\n    \tuint rewardTokens;\n    \t//Here we calculate the reward that the user gets by locking these tokens and adds it to \n    \t// unlockable tokens and new tokens minted for this address will be unlockableTokens + reward\n\n    \tfor(uint i=0;i<lockedIndex;i+=1)\n    \t{\n    \t\tlockedTokens = tokensUnlockable(_of);\n    \t\trewardTokens = calculateReward(_of);\n    \t\tif(lockedTokens > 0)\n    \t\t{\n    \t\t\tunlockableTokens = unlockableTokens.add(lockedTokens.add(rewardTokens));\n    \t\t\tlocked[_of].claimed = true;\n    \t\t\temit Unlocked(_of,unlockableTokens);\n    \t\t}\n    \t}\n\n    \tif(unlockableTokens > 0)\n    \t{\n    \t\t_mint(_of,unlockableTokens);\n    \t}\n    }\n\n    function getUnlockableTokens(address _of)\n    public view returns (uint256 unlockableTokens)\n    {\t\n    \tfor(uint i=0;i<lockedIndex;i+=1)\n    \t{\n    \t\tunlockableTokens = unlockableTokens.add(tokensUnlockable(_of));\n    \t}\n    }\n\n    function calculateReward(address _user)public view returns(uint)\n    {\n    \trequire(!locked[_user].claimed,'IT is already claimed');\n    \tuint time = locked[_user].validity;\n    \tuint amount = locked[_user].amount;\n    \t// One month in seconds = 2629746 approx (30.5 days)\n    \tif(amount >= 2000000 * 10 ** 18)\n    \t{\n    \t\tif(time == 2629746)\n    \t\t{\n    \t\t\tuint yearReward = mulDiv(amount,16,100);\n    \t\t\tuint monthReward = yearReward.div(12);\n\n    \t\t\treturn monthReward;\n    \t\t}\n    \t\tif(time == 2629746 * 3)\n    \t\t{\n    \t\t\tuint yearReward = mulDiv(amount,20,100);\n    \t\t\tuint monthReward = yearReward.div(12);\n\n    \t\t\treturn monthReward * 3;\t\n    \t\t}\n    \t}else\n    \t{\n    \t\tif(time == 2629746)\n    \t\t{\n    \t\t\tuint yearReward = mulDiv(amount,12,100);\n    \t\t\tuint monthReward = yearReward.div(12);\n\n    \t\t\treturn monthReward;\n    \t\t}\n    \t\tif(time == 2629746 * 3)\n    \t\t{\n    \t\t\tuint yearReward = mulDiv(amount,20,100);\n    \t\t\tuint monthReward = yearReward.div(12);\n\n    \t\t\treturn monthReward * 3;\t\n    \t\t}\n    \t}\n    }\n\n\n    //@ dev calculates x * y/z  say (y % of x) where y = percentage x = amount z = 100\n\n    function mulDiv (uint x, uint y, uint z)\n    public pure returns (uint)\n    {\n        (uint l, uint h) = fullMul (x, y);\n        return fullDiv (l, h, z);\n    }\n    // @ dev helper function for mulDiv\n    function fullMul (uint x, uint y)\n    public pure returns (uint l, uint h)\n    {\n        uint xl = uint128 (x); uint xh = x >> 128;\n        uint yl = uint128 (y); uint yh = y >> 128;\n        uint xlyl = xl * yl; uint xlyh = xl * yh;\n        uint xhyl = xh * yl; uint xhyh = xh * yh;\n\n        uint ll = uint128 (xlyl);\n        uint lh = (xlyl >> 128) + uint128 (xlyh) + uint128 (xhyl);\n        uint hl = uint128 (xhyh) + (xlyh >> 128) + (xhyl >> 128);\n        uint hh = (xhyh >> 128);\n        l = ll + (lh << 128);\n        h = (lh >> 128) + hl + (hh << 128);\n    }\n    // @ dev helper function for mulDiv\n    function fullDiv (uint l, uint h, uint z)\n    public pure returns (uint r) {\n        require (h < z);\n        uint zShift = mostSignificantBit (z);\n        uint shiftedZ = z;\n        if (zShift <= 127) zShift = 0;\n        else\n        {\n            zShift -= 127;\n            shiftedZ = (shiftedZ - 1 >> zShift) + 1;\n        }\n        while (h > 0)\n        {\n            uint lShift = mostSignificantBit (h) + 1;\n            uint hShift = 256 - lShift;\n            uint e = ((h << hShift) + (l >> lShift)) / shiftedZ;\n            if (lShift > zShift) e <<= (lShift - zShift);\n            else e >>= (zShift - lShift);\n            r += e;\n            (uint tl, uint th) = fullMul (e, z);\n            h -= th;\n            if (tl > l) h -= 1;\n            l -= tl;\n        }\n        r += l / z;\n    }\n    // @dev helper function for fullDiv \n    function mostSignificantBit (uint x) public pure returns (uint r) {\n        require (x > 0);\n        if (x >= 2**128) { x >>= 128; r += 128; }\n        if (x >= 2**64) { x >>= 64; r += 64; }\n        if (x >= 2**32) { x >>= 32; r += 32; }\n        if (x >= 2**16) { x >>= 16; r += 16; }\n        if (x >= 2**8) { x >>= 8; r += 8; }\n        if (x >= 2**4) { x >>= 4; r += 4; }\n        if (x >= 2**2) { x >>= 2; r += 2; }\n        if (x >= 2**1) { x >>= 1; r += 1; }\n    }\n\n\t\n}",
  "sourcePath": "/home/cryptokowsik/QuillTokenSale/contracts/QuillToken.sol",
  "compiler": {
    "name": "solc",
    "version": "0.5.16+commit.9c3226ce.Emscripten.clang"
  },
  "schemaVersion": "3.2.0",
  "updatedAt": "2020-09-20T06:01:23.733Z",
  "networkType": "ethereum",
  "devdoc": {
    "methods": {
      "allowance(address,address)": {
        "details": "See {IERC20-allowance}."
      },
      "approve(address,uint256)": {
        "details": "See {IERC20-approve}.     * Requirements:     * - `spender` cannot be the zero address."
      },
      "balanceOf(address)": {
        "details": "See {IERC20-balanceOf}."
      },
      "decimals()": {
        "details": "Returns the number of decimals used to get its user representation. For example, if `decimals` equals `2`, a balance of `505` tokens should be displayed to a user as `5,05` (`505 / 10 ** 2`).     * Tokens usually opt for a value of 18, imitating the relationship between Ether and Wei.     * NOTE: This information is only used for _display_ purposes: it in no way affects any of the arithmetic of the contract, including {IERC20-balanceOf} and {IERC20-transfer}."
      },
      "decreaseAllowance(address,uint256)": {
        "details": "Atomically decreases the allowance granted to `spender` by the caller.     * This is an alternative to {approve} that can be used as a mitigation for problems described in {IERC20-approve}.     * Emits an {Approval} event indicating the updated allowance.     * Requirements:     * - `spender` cannot be the zero address. - `spender` must have allowance for the caller of at least `subtractedValue`."
      },
      "increaseAllowance(address,uint256)": {
        "details": "Atomically increases the allowance granted to `spender` by the caller.     * This is an alternative to {approve} that can be used as a mitigation for problems described in {IERC20-approve}.     * Emits an {Approval} event indicating the updated allowance.     * Requirements:     * - `spender` cannot be the zero address."
      },
      "name()": {
        "details": "Returns the name of the token."
      },
      "symbol()": {
        "details": "Returns the symbol of the token, usually a shorter version of the name."
      },
      "totalSupply()": {
        "details": "See {IERC20-totalSupply}."
      },
      "transfer(address,uint256)": {
        "details": "See {IERC20-transfer}.     * Requirements:     * - `recipient` cannot be the zero address. - the caller must have a balance of at least `amount`."
      },
      "transferFrom(address,address,uint256)": {
        "details": "See {IERC20-transferFrom}.     * Emits an {Approval} event indicating the updated allowance. This is not required by the EIP. See the note at the beginning of {ERC20};     * Requirements: - `sender` and `recipient` cannot be the zero address. - `sender` must have a balance of at least `amount`. - the caller must have allowance for `sender`'s tokens of at least `amount`."
      }
    }
  },
  "userdoc": {
    "methods": {}
  }
}